:020000040800F2
:1000000000100020B1200008F9200008F9200008A5
:10001000F9200008F9200008F9200008000000007D
:10002000000000000000000000000000F9200008AF
:10003000F920000800000000F9200008F92000085D
:1000400000000000000000000000000000000000B0
:1000500000000000000000000000000000000000A0
:100060000000000000000000000000000000000090
:100070000000000000000000000000000000000080
:100080000000000000000000000000000000000070
:100090000000000000000000000000000000000060
:1000A0000000000000000000000000000000000050
:1000B0000000000000000000000000000000000040
:1000C0000000000000000000000000000000000030
:1000D0000000000000000000000000000000000020
:1000E0000000000000000000000000000000000010
:1000F0000000000000000000000000000000000000
:1001000000000000000000000000000000000000EF
:1001100000000000000000000000000000000000DF
:1001200000000000000000000000000000000000CF
:1001300000000000000000000000000000000000BF
:1001400000000000000000000000000000000000AF
:10015000000000000000000000000000000000009F
:10016000000000000000000000000000000000008F
:10017000000000000000000000000000000000007F
:08018000000000000000000077
:1001880010B5064C2378002B07D1054B002B02D065
:10019800044800E000BF0123237010BD6800002060
:1001A8000000000068330008044B10B5002B03D092
:1001B8000349044800E000BF10BDC046000000002D
:1001C8006C00002068330008002243088B4274D377
:1001D80003098B425FD3030A8B4244D3030B8B4240
:1001E80028D3030C8B420DD3FF22090212BA030C49
:1001F8008B4202D31212090265D0030B8B4219D32A
:1002080000E0090AC30B8B4201D3CB03C01A524149
:10021800830B8B4201D38B03C01A5241430B8B4291
:1002280001D34B03C01A5241030B8B4201D30B037A
:10023800C01A5241C30A8B4201D3CB02C01A5241A1
:10024800830A8B4201D38B02C01A5241430A8B4264
:1002580001D34B02C01A5241030A8B4201D30B024D
:10026800C01A5241CDD2C3098B4201D3CB01C01A67
:10027800524183098B4201D38B01C01A5241430971
:100288008B4201D34B01C01A524103098B4201D35F
:100298000B01C01A5241C3088B4201D3CB00C01ACC
:1002A800524183088B4201D38B00C01A5241430844
:1002B8008B4201D34B00C01A5241411A00D2014669
:1002C800524110467047FFE701B5002000F006F8DC
:1002D80002BDC0460029F7D076E770477047C04690
:1002E80003B47146490840004900095E49008E443C
:1002F80003BC7047F0B5CE46474680B5070099461F
:100308003B0C9C4613041B0C1D000E0061460004A8
:10031800140C000C45434B4360436143C0182C0C3C
:1003280020188C46834203D980235B029846C44434
:10033800494679437243030C63442D042D0CC918B4
:10034800000440198918C0BCB946B046F0BDC04683
:10035800F0B5D64646464F460020C0B501F06EFFC0
:1003680001F0FEFE4D4BFF271D001E00984610357C
:100378002036002401F024FFC3171B0EC018384094
:10038800C01A28550134042CF4D10435B542F0D1F3
:100398004446474645462034103530372200390058
:1003A800280000F0CDF93E4E4046310000F0EAF852
:1003B8004346403307CF07C33A68474640371A6079
:1003C8003000390000F07AF93000210000F076F9A9
:1003D8005023434499461A002900200000F0B0F940
:1003E800484600F0EFF9380000F0ECF92200290047
:1003F800484600F0A5F9380000F018FA200000F08F
:1004080015FA280000F012FA01239A46103638002F
:1004180000F026FA200000F023FA280000F020FA65
:100428003000390000F04AF93000210000F046F9A8
:1004380001239C464F33434499461A002900200063
:10044800E24400F07DF9484600F0BCF9380000F0BD
:10045800B9F922002900484600F072F9380000F086
:10046800E5F9200000F0E2F9280000F0DFF9534632
:1004780010360A2BCBD10B4E3900300000F01EF994
:100488003000210000F01AF93A002900200000F09D
:1004980057F9E0BCBA46B146A846F0BD8400002032
:1004A800E800002088010020F8B51E000223CE468F
:1004B800474615001A000C0080B50A400B422CD0A4
:1004C8000F2D32D910223100234801F037FE0127C1
:1004D800202310229846103B274217D0454524D3A5
:1004E800F61860231C4C9946E35C012B1FD01022A0
:1004F8003100200001F022FE4B46E75400F00EFFC9
:1005080032001021722000F073FD4246AA420CD13D
:100518000020C0BCB946B046F8BD10230127984654
:1005280000232742F2D04545DAD20420F1E7200023
:1005380010223100303001F001FE00F0E7FEFFF735
:1005480007FF00F0EBFE220010214032722000F07D
:100558004FFD4246DAE7C0468400002010B500F09F
:100568001FFE00F04FFE00F08FFE00F0E5FB1021AB
:100578000120034A00F014FC00F034FCFCE7C046FC
:10058800B1040008F0B5DE4657464E4645460C0015
:10059800E0B501008BB01022200001F0CFFDA37B55
:1005A80022789B46A37AE77B9A46A379E67A99460E
:1005B800A378E5799846637B3D490593637A3D487E
:1005C800049363790991039363780793237B0693D4
:1005D800237A029323790193E3789C4623006446A7
:1005E80010330894099C21784A40415D4A40815D56
:1005F8001A708C466446019961400191C45D029964
:100608006140089C0291045D069961400C000199C3
:100618000694197102991C7319720799039C514029
:10062800079101994C4003940299049C4C4004940E
:100638000699059C4C40079905945970039C5C7178
:10064800049C5C72059C5C7344464C404946A04639
:10065800039C614089465146049C61408A4659463C
:10066800059C61408B4641469970494699715146AF
:100678009972594699734146089C4C4049464D40E9
:1006880051464E405946DC700894099C4F400A492F
:100698000134DD71DE72DF73099410338C42A1D10D
:1006A8000BB0F0BCBB46B246A946A046F0BDC0465A
:1006B800803300088C3500088A33000803780A78EC
:1006C80053400B7043784A7853404B7083788A784C
:1006D80053408B70C278CB785340CB7002790B793A
:1006E80053400B7142794B7953404B7182798B7926
:1006F80053408B71C279CB795340CB71027A0B7A14
:1007080053400B72427A4B7A53404B72827A8B7AFF
:1007180053408B72C27ACB7A5340CB72027B0B7BED
:1007280053400B73427B4B7B53404B73827B8B7BD9
:1007380053408B73C27BCB7B5340CB737047C0460F
:1007480010B503780C78634013704C784378634095
:1007580053708C78837863409370CC78C378634007
:10076800D3700C790379634013714C7943796340F2
:1007780053718C79837963409371CC79C3796340E1
:10078800D3710C7A037A63401372437A4C7A6340CC
:100798005372837A8C7A63409372CC7AC37A6340BB
:1007A800D3720C7B037B634013734C7B437B6340A6
:1007B80053738C7B837B63409373C37BC97B4B40B0
:1007C800D37310BD184B02789A5C027042789A5C19
:1007D800427082789A5C8270C2789A5CC2700279A0
:1007E8009A5C027142799A5C427182799A5C827150
:1007F800C2799A5CC271027A9A5C0272427A9A5CF5
:100808004272827A9A5C8272C27A9A5CC272027B63
:100818009A5C0273427B9A5C4273827B9A5C827315
:10082800C27B9B5CC37370478C350008427903799F
:10083800027182794271C279C3718271827A037AB4
:100848000272C27A8372437A4272827BC372C37B1A
:10085800C273427B8273027B037342737047C04644
:10086800F0B5DE4657464E464546E0B5037893B0A8
:10087800984603799C46037A0693037B9946437806
:100888000593457A447904958278477B079286795F
:1008980045460896817A0991817B0A916146C37819
:1008A8000093C3790193C27A069B0292C27B594096
:1008B80003926B4A535D4D464B406A490B944D5D1C
:1008C800059EAA46049D6C40A3465D46945D089E1D
:1008D8006C40CD5D6C4055466B40099D24026E40CE
:1008E800B246079E2343955D019CAB4655465E463E
:1008F80075400A9EAA468D5DAB4655465E467540D4
:100908002D04AA46009E029D6C40955D039E6C4096
:100918008D5D059E6C40554624062B4323430C935E
:10092800444663466340069C049D0C5D4D5D6340F0
:100938004C46145DA2460B9C74406C40D55D089EE5
:100948006C40554624026B402343099D079C664032
:100958004C5D74400A9E955D019E6C40424D240496
:100968002B402343029D009C1B0266404C5D1B0AE2
:100978007440039E955D0A9E6C40240623430D93A4
:100988004C46434663401C006346CB5C6340069C70
:10099800145DA246059C7C40A3465D460B9C0C5DFD
:1009A8006C40049D555D6C40554624026B402343C2
:1009B800079C099D7440089E8E5D7440565D2A4DC3
:1009C800744024042B40009E2343039C029D6640F0
:1009D8003400019E1B028E5D1B0A7440565D7440F4
:1009E8004E4624062343069C7440260044460C5D6C
:1009F80066406446145D049D66407D40059F089CE2
:100A0800CF5D0F936F400B9D0C9B555D11936F400D
:100A18003F02099D3E430A9F6F40079D4D5D7D4003
:100A2800175D7D402D04039F2E43029D36026F40C3
:100A38003C00009D360A4F5D0EA96740019C125D7F
:100A480057400D9A3F0610923E4310220E9601F031
:100A580075FB13B0F0BCBB46B246A946A046F0BD34
:100A68008C3300088C340008FFFF00FF30B5C1B09C
:100A78006A460023137001230978937043B25070BB
:100A8800D170002B00DA45E14200D3B252B2002AFD
:100A980000DA39E15A00D3B252B2002A00DA2DE165
:100AA8005A00D3B252B2002A00DA21E15A00D3B276
:100AB80052B2002A00DA15E15A00D3B252B2002A23
:100AC80000DA09E15A00D3B252B2002A00DAFDE096
:100AD8005A00D3B252B25B00002A00DAF2E0DBB26D
:100AE800012253405AB25B00002A00DAE5E0DCB28A
:100AF8005AB2002A00DADAE06200D3B252B2002A0F
:100B080000DACEE05A00D3B252B2002A00DAC2E0CC
:100B18005A00D3B252B2002A00DAB6E05A00D3B271
:100B280052B2002A00DAAAE05A00D3B252B2002A1E
:100B380000DA9EE05A00D3B252B25B00002A00DA13
:100B480093E0DBB24B405AB25B00002A00DA87E040
:100B5800DAB25CB2002C00DA7CE05200D3B252B2B6
:100B6800002A00DA70E05A00D3B252B2002A65DBDC
:100B78005A00D3B252B2002A5ADB5A00D3B252B248
:100B8800002A4FDB5A00D3B252B2002A44DB5A0083
:100B9800D3B252B25B00002A01DA4D2253406A46B2
:100BA800DBB2137100235371002801D10133137094
:100BB800002919D1032140AAD218013AFF3ACB1AC9
:100BC80013706B461A790323002A11D06A465279AA
:100BD800002A19D06C46A51D2078013400F0C0FB0E
:100BE800AC42F9D141B030BD6A461279002A0BD126
:100BF800042140AAD218013AFF3ACB1A13706A4668
:100C080052790423002AE5D1052140AAD218013AD5
:100C1800FF3ACB1A1370DDE74D225B0053405AB2FE
:100C2800DBB2B7E74D225B0053405AB2DBB2ACE708
:100C38004D225B0053405AB2DBB2A1E74D225B0064
:100C480053405AB2DBB296E74D225B0053405AB28A
:100C5800DBB28BE753004D2253405AB2DBB27FE739
:100C68004D225A4054B2D2B274E74D225340DBB2FF
:100C780068E74D225B0053405AB2DBB25DE74D2274
:100C88005B0053405AB2DBB251E74D225B00534040
:100C98005AB2DBB245E74D225B0053405AB2DBB291
:100CA80039E74D225B0053405AB2DBB22DE74D22A3
:100CB800630053405AB2DBB221E74D245C4062B274
:100CC800E4B216E74D225340DBB209E74D225B0040
:100CD80053405AB2DBB2FEE64D225B0053405AB293
:100CE800DBB2F2E64D225B0053405AB2DBB2E6E6D5
:100CF8004D225B0053405AB2DBB2DAE64D225B006C
:100D080053405AB2DBB2CEE64D225B0053405AB292
:100D1800DBB2C2E64D22430053405AB2DBB2B6E61C
:100D280000B583B06B46D91D032372200B70FFF703
:100D38009DFE002003B000BD10B5154C23680F2B95
:100D48001CDC76205A001349D218920050548A1895
:100D58000021516010490133916023600F2B13DC8F
:100D680077205A000B49D218920050548A18002153
:100D780051600A4901339160236010BD612000F081
:100D8800EFFA23680F2BEBDD612000F0E9FAF4E7B6
:100D9800980100209C010020290D00086511000819
:100DA80070B50E4E33680F2B0DDCFF2910D85C0090
:100DB8000B4DE418A400605500202C190133616024
:100DC800A260336070BD612000F0CAFA0120F9E723
:100DD800622000F0C5FA0120F4E7C046980100201F
:100DE8009C010020F0B5DE46454657464E46E0B524
:100DF800C3B000236A4602ADD37103AB2C009B46F7
:100E080000F094FA207000284FD00134A345F7D1A0
:100E180000232C782B70032C0CD8002C0AD000212E
:100E280001E0002B06D02B5D2A191C19E4B21170C1
:100E3800032CF6D96C4B00271968002939DD0022EC
:100E480000276E78694804E00132D2B217008A425E
:100E58002FDA7B00DB199B00C35CB342F4D1042278
:100E6800EB78D84605339146A34218DA04236A463C
:100E7800D3716B466520D91DFFF7F8FD43B0F0BC70
:100E8800BB46B246A946A046F0BD4B465E1C0123B0
:100E98009C46EB78E0440433B34210DBB14600F0E3
:100EA80045FA434618700028EFD105236A46D371E6
:100EB800DFE78F42D3D101236A46D371D9E700F027
:100EC80035FAA8550028D1D1F3B29A461B1B013335
:100ED800DBB29C462B5D2A1910709C450ED9002B5D
:100EE8000CD00021884601E0002907D04646D15C95
:100EF800D4185B18DBB226709C45F5D852460924F5
:100F0800033A4D21D2B26C442AE05800C3B240B231
:100F1800002830DB5800C3B240B2002831DB58004B
:100F2800C3B240B2002832DB5800C3B240B2002836
:100F380033DB5800C3B240B2002834DB5800C3B2D8
:100F480040B2002835DB5B00D8B25BB24000002B12
:100F580000DA4840013AD2B2C0B20134FF2A2DD09B
:100F680023785840C3B20006CFD55B004B4058B237
:100F7800DBB20028CEDA5B004B4058B2DBB2002867
:100F8800CDDA5B004B4058B2DBB20028CCDA5B000C
:100F98004B4058B2DBB20028CBDA5B004B4058B26A
:100FA800DBB20028CADA5B004B4058B2DBB200283B
:100FB800C9DA5800484043B2C0B2C7E74B46EB5CB9
:100FC800834203D002236A46D37152E77B00DF19BC
:100FD800064BBF00DF19EA785B46A9786878BC68D9
:100FE800A0476B46D87144E7980100209C01002077
:100FF800F0B5CE46474680B5C1B06B460D00002619
:1010080011001E7058709D70002D00D195E0D81CFD
:101018002A0001F093F82C1DEB1C6F1D681C9C46E0
:10102800A046FFB2C0B2FE2D00D18EE001236B4472
:1010380099461E004D25002329E05AB2D9B2002A4C
:1010480030DB4A00D3B252B2002A31DB5A00D3B2A5
:1010580052B2002A32DB5A00D3B252B2002A33DB32
:101068005A00D3B252B2002A34DB5A00D3B252B279
:10107800002A35DB5A00D3B252B25B00002A00DAEC
:101088006B400138C0B2DBB20136FF282DD0327870
:1010980053405AB25B00002ACFDA6B405AB2D9B239
:1010A800002ACEDA4B006B405AB2DBB2002ACDDA06
:1010B8005B006B405AB2DBB2002ACCDA5B006B40B3
:1010C8005AB2DBB2002ACBDA5B006B405AB2DBB211
:1010D800002ACADA5B006B405AB2DBB2002AC9DACE
:1010E8005B006B405AB2DBB2C7E76A4661465354AD
:1010F800002341465354012F11D9494600220123A8
:101108000878002806D140A8801801389A1AFF38B4
:1011180002701A000133DBB20131BB42F0D16E46D6
:1011280000253078013500F01BF90136AC42F8DAB9
:1011380041B0C0BCB946B046F0BD04239846013B57
:10114800012005279C46042470E76B4662469E549E
:101158001E5501236B4403279946CEE770B50E4B05
:1011680084B01C786A461E68002C0DD0002300212C
:101178006A460A4D480040188000285C0133DBB2FB
:1011880050541900A342F5DB7220F1B2FFF730FF8B
:10119800002004B070BDC046980100209C010020CA
:1011A800D0B59024042201230026032796B0E40535
:1011B800200004A9049205930696079700F026FCE0
:1011C8001022012304A9200004920593069607978C
:1011D80000F01CFC032205230A920B9300230AA8A3
:1011E8000D93139300F0CCF807220123009201938A
:1011F80000220023002168460292039300F048FB76
:1012080016B0D0BD802130B51C4C8902626989B006
:101218000A4362616369C0220B400093009B02236A
:10122800D20090200292039301250122032302A9F0
:10123800C00504920593069500F0E8FB8021A26999
:10124800C9010A43A2610322A3690D480B40019317
:10125800019B236B93432B4323630A4B0360E123D6
:101268009B02436000238360C360036183610C3386
:10127800436100F0C7FC09B030BDC0460010024011
:101288005C0200200038014080201F4AD0B5516917
:10129800800201435161536988B00340902401934F
:1012A800002603278022019B0123E405200002A9D0
:1012B800029203930496059700F0A8FB10220123DD
:1012C800200002A9029203930496059700F09EFB62
:1012D80001230422200002A9029203930496059791
:1012E80000F094FB20000022802100F085FC200003
:1012F8000122102100F080FC01220421200000F0CE
:101308007BFC08B0D0BDC04600100240902010B54C
:1013180001228021C00500F06FFC10BD902010B59F
:1013280000228021C00500F067FC10BDF0B583B035
:101338006B460827084E094CDD1D02E0236A3B4333
:101348002362322301222900300000F009FD002821
:10135800F4D1287803B0F0BD5C02002000380140C9
:1013680000B583B06B460122D91D0870024B0348B3
:1013780000F0DAFD03B000BD881300005C02002015
:10138800F0B5CE46474680B5046883B0E30735D547
:101398000C22C1494B681340042B00D12FE14B6844
:1013A8001A40082A00D126E14368012B00D16BE1DD
:1013B800002B00D17EE1052B00D149E2B64BB7499D
:1013C8001A680A401A601A68B5490A401A608027E4
:1013D800B44AB149156800266B1C8C461360663503
:1013E800BF0204E0013301269D4200D1B7E1614606
:1013F80009683942F6D0002E00D01360A3073BD508
:101408000C23A54A51680B4229D051680B40082B80
:1014180022D0C368A049002B00D188E101220B68C3
:101428001343A04A0B6013685D1C156002250E6803
:10143800354219D10F689E1C3D4200D0C7E10968AA
:10144800DE1C0D4200D0C2E104330320136003B058
:10145800C0BCB946B046F0BD5368DB03D9D48E4B47
:101468001B689B0700D509E1F8258B4903690A68C1
:10147800DB00AA4313430B60230719D5C3698649C8
:10148800002B00D1C6E001224B6A1343854A4B6208
:1014980013685D1C156002254E6A354208D14F6AF3
:1014A8009E1C3D4203D1496ADE1C0D42CCD0166019
:1014B800630749D580220025774B5205D969A9468B
:1014C800114208D1D9691143D961DB691A400192E7
:1014D800019B012399468026734D76002B68334281
:1014E80000D1B0E06F4A1368816801290FD0002944
:1014F80000D102E1052900D15FE1012666490D6AA4
:10150800B5430D620D6A0336B5430D6203E0624EC2
:10151800356A29433162654D591CAC465E4D6344BA
:101528000027AC460226116003E0013101279942E9
:101538002ED065462D6A2E42F7D0002F00D01160BC
:101548004B46012B00D130E1E30630D54369012B2E
:1015580000D107E105331ED004214F4B5A6B0A43D3
:101568005A635A6B03398A435A634E4A11684C1CB2
:10157800146002245D6B2C4219D05E6B8D1C3442C2
:1015880000D126E15B6BCD1C1C4200D121E1043166
:10159800032011605BE70421F8243F4A536B8B4317
:1015A8005363516B8369A143DB000B435363026AA6
:1015B800002A1ED00C21384B5C682140082927D00E
:1015C800022A00D107E11A6839490A401A60354AE7
:1015D8001168481C106080201C688004044208D0F0
:1015E8001D688C1C054203D01B68CC1C0342CED15D
:1015F800146000202BE74B68DB0300D4D4E6264BAD
:101608001B689B0300D4F9E64368002B00D0F5E67D
:1016180001201CE701224B6A9343224A4B6213685C
:101628005D1C156002254E6A354200D140E74F6ABD
:101638009E1C3D4200D13AE7496ADE1C0D4200D0AB
:1016480002E7166034E72B68164A33432B601368A9
:101658000027591C8846116066218C469C444346E5
:1016680004E001330127634500D1EEE629683142E1
:10167800F7D0002F00D19EE0136035E7C368012B37
:1016880000D1F1E60120E2E68023034A5B021168FB
:101698000B4313609BE6C04600100240FFFFFEFFAD
:1016A800FFFFFBFFCC020020007000408A130000FF
:1016B800FFFFFFFE6621884680216D4D6D4A2B682D
:1016C800890213402B602B686B4A002713406B4A32
:1016D8002B6016688C46731C1360B04404E0013319
:1016E8000127434500D1B0E6664629683142F6D164
:1016F800002F00D182E6136080E601255C4E0027AA
:10170800316AA9433162316A0335A9435C4D3162BC
:10171800A846591C98441160022304E001310127AE
:10172800414500D134E7356A2B42F7D105E701225C
:101738000B689343514A0B6013685D1C15600225C2
:101748000E68354200D197E60F689E1C3D4204D0D2
:101758000968DE1C0D4200D076E616608CE6032090
:10176800156074E6042442494A6B22434A634A6B73
:101778001343424A4B6313685C1C146002244D6B8C
:101788002C4209D14E6B9D1C344204D1496BDD1C9F
:101798000C4200D158E61560F824354983694A6B34
:1017A800DB00A24313434B6301E7314A3549D36950
:1017B8000B40D361C8E6434696E604262C490D6AD9
:1017C80035430D620D6A033E35430D62A3E616608C
:1017D8004AE61560EBE680251A682B49AD040A40F5
:1017E8001A60264A1E6811684C1C2E4208D01E68D2
:1017F8008C1C2E4204D01B68CC1C2B4200D0C6E6A1
:101808000F251B4BD96AA943C56A2943D962816A46
:10181800406A5D6801431D482840014359608021A2
:101828001868490401431960611C11608021186817
:101838008904084200D0DCE61D68A01C0D4213D1C3
:101848001B68E01C0B420FD1043403201460FEE532
:101858008022074BD20219680A431A60802219684D
:1018680052020A431A60B2E510600020EFE5C04654
:1018780000100240FFFFFEFFFFFFFBFFCC0200202D
:101888008A130000FFFFFFEFFFFFFFFEFFFFC2FF0D
:10189800F0B50123CE464746564C80B522681A401B
:1018A8008A4209D222689A430A4322602268134076
:1018B8008B4201D0012049E00268930706D5F02544
:1018C8004D4C6368AB4385682B436360D30729D5C8
:1018D800494D43682C68012B68D0022B42D0A407DD
:1018E800E8D503266C68B44323436B60434B9946A1
:1018F8004C461F687B1C2360414CA4460024A0462C
:101908000C346744A44604E001240133A0469F42F6
:101918006CD066466C682642F6D14446002C01D04D
:101928004C4623600125334C23682B408B4211D849
:10193800530706D5304A334953680B40C1680B43F7
:101948005360E1220020304BD2031A60C0BCB94674
:10195800B046F0BD2368AB43236023681D42E7D03F
:101968000120F3E7A401A5D503266C68B4432343FB
:101978006B60224B1F6899467C1C1C60204B9C4660
:10198800002398460C3367449C4604E00123013445
:101998009846A7422AD066466B683340082BF5D193
:1019A8004346002BBED04B461C60BBE7A40300D4C3
:1019B80080E703266C68B44323436B600F4B1F68B2
:1019C80099467C1C1C600E4B9C46002398460C33A1
:1019D80067449C4604E0012301349846A74205D099
:1019E80066466B683340042BF5D1D9E74B46032094
:1019F8001F60ABE70020024000100240CC0200202C
:101A08008A130000FFF8FFFF00000020F0B54546EC
:101A1800DE4657464E46E0B50D68002385B0002DDA
:101A280000D181E0012293466D4AAA469146884634
:101A38005C4652469C4022400092524622426FD059
:101A48004246526810251100A9430191022900D18C
:101A580071E003265D00AE40B44661460768F64370
:101A68008F43390003271740AF40BC460F0061463B
:101A78000F43019907600139012900D877E0C1684F
:101A88000E4041468968A9400E4380214905C66039
:101A98000A4245D049465C468969032521434C469C
:101AA800A161A1695C460F2621404E4C1D40A44609
:101AB800AD00AE40039103999908890061448C6890
:101AC800B4439026F605B0420ED0474EB04200D13E
:101AD8007DE0464EB04200D17DE0454EB04200D197
:101AE80071E00526AE4034438C604249009C096889
:101AF800E443D5034ED43F4D2140296069689503DE
:101B08004FD43C4D21406960A968D50250D4394D65
:101B18002140A960E968920251D42140354AD16038
:101B280052460133DA4083D105B0F0BCBB46B24619
:101B3800A946A046F0BD0F27093D1D40AD00AF40A6
:101B4800D908890041180E6ABE4347463F69AF402D
:101B58003E430E6201685D008C4603216746A9403A
:101B68008F43CE4303211140A94039430160816866
:101B780031408C464146C9686746A94039435F46AB
:101B880081604168A1430C00110939409940214303
:101B9800416074E7009D2943164D296069689503E3
:101BA800AFD5009D2943134D6960A968D502AED50C
:101BB800009D29430F4DA960E9689202ADD5009AAE
:101BC8000A431100AAE70326AE4034438CE75E4679
:101BD800AE40344388E70226AE40344384E7C0462B
:101BE80000100240000001400004004800080048BE
:101BF800000C004800040140002A01D081617047B0
:101C08008162FCE770B5041E00D16EE06923C35CF5
:101C1800DAB2002B01D16833C25469232422E2547A
:101C28002568233A2B68206993432B60A3682968A9
:101C380003436069E26903434048134301400B438F
:101C48002B606B683E49206A0B40E1680B436B6070
:101C5800A369A96803433B4801400B43AB603A4B77
:101C6800196B03230B40013B022B26D980231B024F
:101C78009A4259D063685808E123DB039C4661689F
:101C88006044FEF7A1FA0004000CE8606B682F4A74
:101C98006921134008226B60AB6800209343AB6056
:101CA8002B68073A13432B6000231F32E366625404
:101CB800013162544832A35470BD2549CB5C802160
:101CC80009028A4213D0042BD4D007D8002BD1D0D4
:101CD800022B0AD1636858081E4BCFE7082B04D1A2
:101CE8006368580880231B02C8E70120E4E7042B37
:101CF8001AD012D8002B17D0022B1AD163685808B3
:101D0800154B9C4661686044FEF75EFA134B03402E
:101D18000007400F1843E860B8E7082B09D163684B
:101D2800580880235B02ECE763685808E1231B042A
:101D3800E7E700230120EB60BEE7C046F369FFFF39
:101D4800FFCFFFFFFFF4FFFF00100240FFF7FFFF88
:101D58008C3600080024F4000048E801F0FF000079
:101D6800F0B54546DE4657464E466A24E0B5055D61
:101D7800202D65D1002958D0002A56D080268568A4
:101D88007601B54248D06826875D012F58D00127D3
:101D980087550026C66622360655604CA3465E4621
:101DA8002468671C37605826825302368253002DF8
:101DB80000D171E05C22825A90465A220025825A4C
:101DC800AA46002A20D0E2439446802252015A268D
:101DD80091462035825B0468013A92B282535A1CBC
:101DE80030D1E2691542FCD082684A454BD0A28CBA
:101DF800444622400A700131825B002AEAD15346E8
:101E0800002B01D05B461F606A232022C2540022A7
:101E1800023BC254002009E00569002D0CD10135B0
:101E28002E000E40B44629425FD00120F0BCBB46CC
:101E3800B246A946A046F0BD6825465D012E38D1B8
:101E48000220F3E7E2691542CED1002B2DD0012202
:101E5800924662460137D2199A42C0D95B461F6042
:101E680023682F4A13402360A368A332FF329343A9
:101E7800A3602023683283540132835400224833FC
:101E8800C2540320D2E70269002AB0D1A28C44468A
:101E980022400A800231AFE70269002A1FD1FF25DC
:101EA8005C328552A332904687E75346002BD5D142
:101EB800D6E7012646550025C56622350555174C37
:101EC800A3465D462468671C2F6058254253023597
:101ED80042535C22A5358552A33290466DE75C22B9
:101EE8007F2585522332904667E76826875D012F54
:101EF800A6D085556546C56622250555074CA346D7
:101F08005D462468671C2F605825425302354253AA
:101F1800044A0235904642534FE7C046CC0200209F
:101F28005FFEFFFFFF010000F0B5DE4657464E4654
:101F380045466924E0B5045D83B0202C00D095E0C7
:101F4800002961D0002A5FD08468A44680246401F7
:101F5800A44554D06824055D012D00D186E00125F3
:101F6800055500242035C466693405554C4CA346F4
:101F78005D4624680194013400942C605024025377
:101F880002340253025B0468002A21D000229146E1
:101F9800019A5226D24392468022520180259046C9
:101FA800009F825B013A92B282535A1C34D1E26993
:101FB8001542FCD0C44550D00A7801312285825B95
:101FC800002AEED14A46002A02D05A4600971760E6
:101FD800019A00214025D2435E1C49D14022E36981
:101FE8001A42FCD0002902D05B46009A1A60692385
:101FF8002022C2540022013BC254002005E004699B
:10200800002CA7D1CC07A5D5012003B0F0BCBB4656
:10201800B246A946A046F0BDE2691542CAD1002BD6
:1020280037D00122914652460137D2199342BCD289
:102038005B461F6023681B4A13402360A368A332D2
:10204800FF329343A36020236832835401328354C0
:1020580000224833C2540320D7E70269002AABD1D3
:102068000A880231D205D20D2285A8E70220CCE7E2
:10207800E6693542B6D1002B0FD0009901310E0028
:10208800961900910121B342A6D25B46009A1A60C4
:10209800D0E74B46002BCBD1CCE70029F5D1C9E7D7
:1020A800CC0200205FFEFFFF002103E00B4B5B58D2
:1020B800435004310A480B4B42189A42F6D30A4A55
:1020C80002E0002313600432084B9A42F9D300E07F
:1020D80000BF00F00FF8FEF741FAFEE700380008ED
:1020E800000000206800002068000020E4020020B2
:1020F800FEE7000070B500260C4D0D4C641BA410C3
:10210800A64209D1002601F02BF90A4D0A4C641B9E
:10211800A410A64205D170BDB300EB58984701360C
:10212800EEE7B300EB5898470136F2E7F8370008B6
:10213800F8370008F8370008FC370008002310B506
:102148009A4200D110BDCC5CC4540133F8E70300B7
:102158008218934200D1704719700133F9E70000E3
:10216800114B70B51D680400AB6B002B16D11820FD
:1021780000F0BEF8021EA86304D142210B4B0C48A4
:1021880000F076F80B4B002103600B4B43600B4BC0
:1021980083600B2383810120106151610022AB6BA6
:1021A8001C615A6170BDC0460400002094360008C6
:1021B800AB3600080E33CDAB34126DE6ECDE05000D
:1021C800164B10B51C68A36B002B16D1182000F015
:1021D8008FF8021EA06304D14E21114B114800F064
:1021E80047F8114B00210360104B4360104B83608C
:1021F8000B238381012010615161A46B0D4A206972
:1022080061690D4BFEF776F80122002380185941C9
:10221800206161614800400810BDC04604000020EC
:1022280094360008AB3600080E33CDAB34126DE699
:10223800ECDE05002D7F954C2DF451581FB50B4B46
:10224800040000226946186800F040F8002804DA03
:1022580001225242D3170092019300980199002C51
:1022680001D02060616004B010BDC04604000020A9
:1022780030B514001A00094B05001B6885B0D868F2
:10228800074B002C01D1074B1C00019300912B0038
:102298000549029400F00AF800F0A0FC04000020B0
:1022A8002837000863370008353700080EB403B52F
:1022B800010003AB044804CB0068019300F0F2F876
:1022C80002B008BC03B0184704000020002370B512
:1022D800064D0400080011002B6001F001F8431CB2
:1022E80003D12B68002B00D0236070BDD8020020DA
:1022F80010B5034B0100186800F04EF810BDC04639
:102308000400002070B50500002910D00C1F2368B8
:10231800002B00DAE418280000F0B2FE1D4A13680A
:10232800002B05D163601460280000F0B1FE70BD79
:10233800A34208D9216860188342F3D118685B6802
:1023480041182160EEE71A005B68002B01D0A34218
:10235800F9D911685018A0420BD1206809185018F3
:1023680011608342E0D118685B68411811605360BE
:10237800DAE7A04202D90C232B60D5E72168601860
:10238800834203D118685B68411821606360546018
:10239800CAE7C046D0020020F8B50323CD1C9D43F0
:1023A800083506000C2D1FD20C25A9421ED8300076
:1023B80000F066FE25490A681400002C1AD1244F43
:1023C8003B68002B04D12100300000F027FB386067
:1023D8002900300000F022FB431C2BD10C233000D5
:1023E800336000F055FE03E0002DDEDA0C23336085
:1023F8000020F8BD23685B1B19D40B2B03D923607D
:10240800E418256003E06368A2420ED10B60300037
:1024180000F03EFE200007220B30231D9043C21A15
:102428009842E6D01B1AA350E3E75360EFE7220077
:102438006468C2E70323C41C9C43A042E1D0211A6C
:10244800300000F0EBFA431CDBD1C7E7D0020020D4
:10245800D4020020936810B5013B9360002B04DA86
:102468009469A34207DB0A2905D01368581C106039
:102478001970080010BD00F0E3FA0100F9E7F8B59B
:1024880006000F001400D518AC4201D1002007E067
:1024980021783A003000FFF7DDFF0134431CF3D107
:1024A800F8BD0000F0B5A1B006000C001F000392B3
:1024B800002804D08369002B01D100F0C5FC8E4BA5
:1024C8009C421CD17468636EDB0705D4A3899B0505
:1024D80002D4A06D00F059FDA3891B0702D523691A
:1024E800002B1DD12100300000F000FB002817D080
:1024F800636EDB070DD50120404221B0F0BD7F4B54
:102508009C4201D1B468DEE77D4B9C42DBD1F46884
:10251800D9E7A3899B05EED4A06D00F037FDEAE763
:10252800002308AD6B6120336B761033AB760797C9
:10253800039F3B78002B01D0252B4ED1039BFB1A20
:102548000593039B9F420DD0059B21003000039A01
:10255800FFF795FF431C00D1B5E06A69059B9446D7
:1025680063446B613B78002B00D1ACE001227B1CFB
:102578000393002352426A6004A9543252182B6014
:10258800EB60AB601370AB65039B052219785D485F
:1025980000F06AFD039B5F1C002820D12A68D3063F
:1025A80004D5532304A95B1820211970130704D5F7
:1025B800532304A95B182B211970039B1B782A2B22
:1025C80016D00021EB68039F3A78781C303A84468D
:1025D800092A4FD9002911D117E00137A9E7494B3A
:1025E8002A68C01A0123834013432B600397CBE763
:1025F800079B191D1B680791002B01DB0B9304E057
:102608005B42EB60022313432B603B782E2B0AD1ED
:102618007B782A2B37D1079B02371A1D1B68079234
:10262800002B2DDB099303223978374800F01CFD75
:10263800002807D0344B2A68C01A4023834013432C
:1026480001372B6039787B1C0622304803932976A2
:1026580000F00AFD002845D02D4B002B27D107227A
:10266800079B07339343083307936B69049A9B18B6
:102678006B615DE70A214B4367469B180939A3E75D
:1026880001235B42CEE700231A0001376B603978DB
:10269800781C30398446092903D9002BC3D0099204
:1026A800C1E70A235A4367465218093BEFE707ABCD
:1026B8000093220029003000164B00E000BF049070
:1026C800049B0133D1D1636EDB0705D4A3899B0535
:1026D80002D4A06D00F05AFCA3895B0600D50AE776
:1026E8000D980AE707AB0093220029003000094B38
:1026F80000F082F8E3E7C046B8370008D83700088A
:1027080098370008643700086A3700086E370008F1
:102718000000000087240008F7B5150001938A68B7
:102728000B690C000090934200DA130022002B6022
:1027380043321278002A01D001332B6023689B06AC
:1027480002D52B6802332B602268062317001F402E
:102758001A4227D0230043331B785A1E934122681C
:10276800920630D4220001990098089E4332B0475F
:10277800431C25D0062320682A68E1680025034009
:10278800042B03D18D1AEB43DB171D40A368226984
:10279800934201DD9B1AED180027BD4220D100208D
:1027A80010E00137E3682A689B1ABB42D2DD220099
:1027B800012301990098089E1932B047431CF0D1B3
:1027C80001204042FEBD3020E1184331087021004D
:1027D8005A1C45310978A218433202331170C1E7F7
:1027E8002200012301990098089E1A32B047431C21
:1027F800E6D00137D1E70000F0B58BB006920A00A9
:1028080043320793059004920A7E0C00109B782AA5
:1028180007D8622A09D8002A00D1C1E0582A00D175
:102828008CE026004236327022E01000633815280A
:10283800F7D8FDF755FD16001F00F6FFF6FFF6FF67
:10284800F6FF1F00F6FFF6FFF6FFF6FFA8003600BA
:102858009A00F6FFF6FFB900F6FF3600F6FFF6FF1E
:102868009E0026001A684236111D196013683370DD
:102878000123A7E0086819680A1D05060BD50D682D
:102888001A60002D03DA2D23049A6D421370614BF0
:102898000A2703931BE00D681A604106F1D52DB293
:1028A800EFE70D681968081D18602E0601D50D6838
:1028B80003E06D06FBD50D68ADB2564B08270393B0
:1028C8006F2A00D002372300002243331A7063684E
:1028D800A360002B03DB0422216891432160002DB3
:1028E80002D1049E002B0CD0049E28003900FDF76D
:1028F800F1FC039B013E5B5C33702B0005009F429B
:10290800F3D9082F09D12368DB0706D56368226944
:10291800934202DC3023013E3370049B9B1B2361EE
:10292800079B210000930598069B09AAFFF7F4FE70
:10293800431C4CD1012040420BB0F0BD45310A7018
:10294800344A03921A68216820CA1A60080616D504
:10295800CB0702D52023194321601027002DB2D1BF
:10296800202322689A432260ADE7202209680A439F
:1029780022602200782145321170274AE1E7480693
:10298800E6D5ADB2E4E71A680D68101D496918600C
:1029980013682E0601D5196002E06D06FBD5198073
:1029A8000023049E2361BBE71A68111D196016688D
:1029B80000213000626800F057FB002801D0801B1E
:1029C8006060636823610023049A1370A8E7236991
:1029D800320006990598079DA847431CAAD023688A
:1029E8009B0715D4099BE0689842A5DA1800A3E76D
:1029F8002200012306990598079E1932B047431C07
:102A080098D00135E368099A9B1AAB42F0DCE9E7F4
:102A18000025F7E77537000886370008002370B5EA
:102A2800064D040008002B6000F082FC431C03D113
:102A38002B68002B00D0236070BDC046D802002050
:102A4800F8B505000E001400002804D08369002B97
:102A580001D100F0F9F9224B9C422ED16C68A36990
:102A6800A360A3891B0732D52369002B2FD02368C5
:102A78002269F7B2981A6369F6B2834205DC21002D
:102A8800280000F03FF9002827D1A3680130013B56
:102A9800A36023685A1C22601F706369834204D0B4
:102AA800A389DB0707D50A2E05D12100280000F0ED
:102AB80029F9002811D13000F8BD0A4B9C4201D1F8
:102AC800AC68CCE7084B9C42C9D1EC68C7E7210049
:102AD800280000F00BF80028C9D001267642EAE762
:102AE800B8370008D837000898370008374B70B552
:102AF8001D6806000C00002D05D0AB69002B02D123
:102B0800280000F0A1F9324B9C420FD16C680C23CD
:102B1800E25E93B211072DD4D90611D409230120FE
:102B2800336037331343A381404270BD294B9C4225
:102B380001D1AC68EBE7284B9C42E8D1EC68E6E7AA
:102B48005B0713D5616B002908D0230044339942F1
:102B580002D03000FFF7D6FB002363632422A38949
:102B68009343A38100236360236923600823A28918
:102B78001343A3812369002B0BD1A0218022A389B1
:102B8800890092000B40934203D02100300000F0EE
:102B980027FA0C22A35E01201A0099B202400342D0
:102BA8000FD00022A26062695242A261002022690D
:102BB8008242BAD10A06B8D540221343A38101380C
:102BC800B3E7880700D46269A260EFE70400002039
:102BD800B8370008D837000898370008062010B51D
:102BE80000F088FA012000F0B9FB0000F7B58B89E6
:102BF80005000C001A075FD44A68002A04DC0A6C36
:102C0800002A01DC0020FEBDE76A002FFAD000226E
:102C180080212E682A601A0049010A400B4234D0EC
:102C2800606DA3895B0706D56368C01A636B002BC8
:102C380001D0236CC01A0200216A00232800E76A29
:102C4800B847A189431C06D12B681D2B31D82C4AC3
:102C5800DA40D3072DD50023636023692360CB04B2
:102C680005D5431C02D12B68002B00D16065616B30
:102C78002E600029C6D023004433994202D0280090
:102C8800FFF740FB00206063BDE701232800216AAD
:102C9800B847431CC5D12B68002BC2D01D2B01D0CF
:102CA800162B01D12E60ADE74023A2891343A381DF
:102CB800A9E740230B43FAE70F69002FA2D00A685F
:102CC8000F60D21B019200229B0700D14A69A260C3
:102CD800019B002B00DC95E73A002800019B216A44
:102CE800A66AB047002806DC40230120A28940429A
:102CF8001343A38187E7019B3F181B1A0193E7E75A
:102D0800010040200B6970B505000C00002B02D1B2
:102D18000025280070BD002804D08369002B01D14C
:102D280000F092F8144B9C421BD16C680C22A35EF5
:102D3800002BEDD0626ED20704D49B0502D4A06D9F
:102D480000F023F928002100FFF750FF636E05000B
:102D5800DB07DED4A3899B05DBD4A06D00F016F950
:102D6800D7E7064B9C4201D1AC68DFE7044B9C4295
:102D7800DCD1EC68DAE7C046B8370008D837000875
:102D880098370008002310B504000360436083608F
:102D9800818143661900C28103614361836108220E
:102DA8005C30FFF7D4F9054B24626362044BA362DD
:102DB800044BE362044B236310BDC0463D31000859
:102DC800653100089D310008C931000810B5024975
:102DD80000F0BAF810BDC0460D2D000870B5682582
:102DE8004A1E55430E0029007431FFF7D5FA041E18
:102DF80008D000212A00016046600C30A0606832CB
:102E0800FFF7A5F9200070BD10B5024800F0BDF825
:102E180010BDC046DD02002010B5024800F0B6F82B
:102E280010BDC046DD02002010B5024800F0ADF824
:102E380010BDC046DE02002010B5024800F0A6F81A
:102E480010BDC046DE02002013B50400FFF7ECFFFA
:102E5800A369002B02D0FFF7EFFF13BDA364E3645F
:102E68002365134B134A1B68A2620193A34201D145
:102E78000123A361200000F01FF86060200000F02B
:102E88001BF8A060200000F017F800220421E06081
:102E98006068FFF777FF01220921A068FFF772FF3A
:102EA80002221221E068FFF76DFF0123A361D2E738
:102EB80090360008D52D0008F8B50700FFF7A4FFE5
:102EC8001F4B1E68B369002B02D13000FFF7BCFF0F
:102ED8004836B4687368013B04D53368002B22D0A8
:102EE8003668F6E70C22A55E002D1AD12000154B96
:102EF8005830E360656600F047F8FFF78DFF200063
:102F0800082229002560A560656025616561A561C5
:102F18005C30FFF71CF96563A563A564E5642000D0
:102F2800F8BD6834D7E704213800FFF757FF041EBF
:102F38003060D5D1FFF770FF0C233B60EFE7C04648
:102F4800903600080100FFFFF7B5040006000027CF
:102F5800019148346368A5680093009B013B009386
:102F680004D52468002CF5D13800FEBDAB89012BAF
:102F780008D90E22AB5E013304D029003000019B32
:102F8800984707436835E8E770477047704700007F
:102F980070B50E001D000E23C95E140096B00029FE
:102FA80008DA0C22B35E00222A601B0611D48023A3
:102FB800DB000FE06A4600F02FF90028F1DBF02370
:102FC80001991B021940054BC9184B425941296008
:102FD800EDE740230020236016B070BD00E0FFFF3E
:102FE800F7B502268B8905000C00334206D0230072
:102FF80047332360236101236361F7BD6A4601AB50
:10300800FFF7C6FF009907002800FFF7C5F9002859
:1030180008D10C22A35E9A05EFD4032293431E43E2
:10302800A681E4E70F4BAB628023A289206013439B
:10303800A381009B20616361019B002B0DD02800B8
:103048000E23E15E00F0FAF8002806D00322A389D7
:1030580093431A0001231343A381A0890743A7813F
:10306800CBE7C046D52D0008C9B28218904201D1DD
:103078000020704703788B42FBD00130F6E7000050
:1030880010B50248FFF781FF10BDC046DC020020E2
:1030980010B50248FFF77AFF10BDC046DC020020D9
:1030A80070B504000D001F2904D916230360012000
:1030B800404270BD436C002B04D08A009B181A68EC
:1030C800002A08D1200000F031F82A000100200071
:1030D80000F01AF8EDE70020012AEAD0511C03D1CC
:1030E800162301302360E4E7002428001C60904781
:1030F8002000DEE710B5034B01001868FFF7D0FF8A
:1031080010BDC04604000020002370B5064D040021
:10311800080011002B6000F0F3F8431C03D12B6862
:10312800002B00D0236070BDD802002010B500F03D
:10313800CFF810BD70B50C000E25495F00F0A4F85B
:10314800002803DB636D1B18636570BDA389024A01
:103158001340A381F9E7C046FFEFFFFFF8B51F0052
:103168008B8905000C001600DB0505D50E23C95E0A
:103178000022022300F074F8A389054A28001340AE
:10318800A38132000E23E15E3B0000F01FF8F8BD7A
:10319800FFEFFFFF70B50C000E25495F00F060F8E7
:1031A800A389421C03D1054A1340A38170BD802224
:1031B80052011343A3816065F8E7C046FFEFFFFFA4
:1031C80010B50E23C95E00F015F810BD70B50400E7
:1031D800080011001A000023054D2B6000F0B6F816
:1031E800431C03D12B68002B00D0236070BDC04660
:1031F800D8020020002370B5064D040008002B609B
:1032080000F056F8431C03D12B68002B00D0236034
:1032180070BDC046D8020020002370B5064D0400DA
:10322800080011002B6000F04BF8431C03D12B68F9
:10323800002B00D0236070BDD8020020002370B599
:10324800064D040008002B6000F052F8431C03D11F
:103258002B68002B00D0236070BDC046D802002028
:1032680070B50400080011001A000023054D2B60FA
:1032780000F04EF8431C03D12B68002B00D02360CC
:1032880070BDC046D802002070B5040008001100C7
:103298001A000023054D2B6000F042F8431C03D1AF
:1032A8002B68002B00D0236070BDC046D8020020D8
:1032B80058220120014B40421A607047D802002072
:1032C80058220120014B40421A607047D802002062
:1032D80058220120014B40421A607047D802002052
:1032E80058220120014B40421A607047D802002042
:1032F8005822024B00201A607047C046D8020020AE
:1033080058220120014B40421A607047D802002021
:1033180058220120014B40421A607047D802002011
:1033280058220120014B40421A607047D802002001
:10333800044A03001068002802D0C31813607047BD
:103348000148FAE7E0020020E802002058220120A4
:10335800014B40421A607047D8020020FEE7C04681
:10336800F8B5C046F8BC08BC9E467047F8B5C046DC
:08337800F8BC08BC9E4670473A
:1033800001020408102040801B36000000030605DF
:103390000C0F0A09181B1E1D141712113033363575
:1033A0003C3F3A39282B2E2D242722216063666565
:1033B0006C6F6A69787B7E7D747772715053565555
:1033C0005C5F5A59484B4E4D44474241C0C3C6C545
:1033D000CCCFCAC9D8DBDEDDD4D7D2D1F0F3F6F535
:1033E000FCFFFAF9E8EBEEEDE4E7E2E1A0A3A6A525
:1033F000ACAFAAA9B8BBBEBDB4B7B2B19093969515
:103400009C9F9A99888B8E8D848782819B989D9EA4
:1034100097949192838085868F8C898AABA8ADAE74
:10342000A7A4A1A2B3B0B5B6BFBCB9BAFBF8FDFE64
:10343000F7F4F1F2E3E0E5E6EFECE9EACBC8CDCE54
:10344000C7C4C1C2D3D0D5D6DFDCD9DA5B585D5E44
:1034500057545152434045464F4C494A6B686D6E34
:1034600067646162737075767F7C797A3B383D3E24
:1034700037343132232025262F2C292A0B080D0E14
:1034800007040102131015161F1C191A0002040666
:10349000080A0C0E10121416181A1C1E20222426BC
:1034A000282A2C2E30323436383A3C3E40424446AC
:1034B000484A4C4E50525456585A5C5E606264669C
:1034C000686A6C6E70727476787A7C7E808284868C
:1034D000888A8C8E90929496989A9C9EA0A2A4A67C
:1034E000A8AAACAEB0B2B4B6B8BABCBEC0C2C4C66C
:1034F000C8CACCCED0D2D4D6D8DADCDEE0E2E4E65C
:10350000E8EAECEEF0F2F4F6F8FAFCFE1B191F1DE7
:10351000131117150B090F0D030107053B393F3D2B
:10352000333137352B292F2D232127255B595F5D1B
:10353000535157554B494F4D434147457B797F7D0B
:10354000737177756B696F6D636167659B999F9DFB
:10355000939197958B898F8D83818785BBB9BFBDEB
:10356000B3B1B7B5ABA9AFADA3A1A7A5DBD9DFDDDB
:10357000D3D1D7D5CBC9CFCDC3C1C7C5FBF9FFFDCB
:10358000F3F1F7F5EBE9EFEDE3E1E7E5637C777B5A
:10359000F26B6FC53001672BFED7AB76CA82C97D4F
:1035A000FA5947F0ADD4A2AF9CA472C0B7FD9326E0
:1035B000363FF7CC34A5E5F171D8311504C723C3E4
:1035C0001896059A071280E2EB27B27509832C1A28
:1035D0001B6E5AA0523BD6B329E32F8453D100ED82
:1035E00020FCB15B6ACBBE394A4C58CFD0EFAAFB66
:1035F000434D338545F9027F503C9FA851A3408F2E
:10360000929D38F5BCB6DA2110FFF3D2CD0C13EC45
:103610005F974417C4A77E3D645D197360814FDCDA
:10362000222A908846EEB814DE5E0BDBE0323A0ABE
:103630004906245CC2D3AC629195E479E7C8376D42
:103640008DD54EA96C56F4EA657AAE08BA78252E67
:103650001CA6B4C6E8DD741F4BBD8B8A703EB566F0
:103660004803F60E613557B986C11D9EE1F89811E1
:1036700069D98E949B1E87E9CE5528DF8CA1890DD0
:10368000BFE6426841992D0FB054BB1604080200F2
:10369000080000205245454E54206D616C6C6F63EC
:1036A00020737563636565646564002F6D6E742FA8
:1036B000776F726B73706163652F776F726B737066
:1036C0006163652F4743432D31302D706970656C00
:1036D000696E652F6A656E6B696E732D4743432D66
:1036E00031302D706970656C696E652D34385F32CC
:1036F000303230313132345F313630363138303675
:1037000034312F7372632F6E65776C69622F6E652B
:10371000776C69622F6C6962632F7374646C696281
:103720002F72616E642E63002C2066756E6374695F
:103730006F6E3A2000617373657274696F6E202238
:10374000257322206661696C65643A2066696C6540
:1037500020222573222C206C696E65202564257338
:1037600025730A00232D302B2000686C4C00656601
:1037700067454647003031323334353637383941C2
:1037800042434445460030313233343536373839D8
:1037900061626364656600000000000000000000D4
:1037A0000000000000000000000000000000000019
:1037B0000000000000000000000000000000000009
:1037C00000000000000000000000000000000000F9
:1037D00000000000000000000000000000000000E9
:1037E00000000000000000000000000000000000D9
:0837F0000000000000000000D1
:0437F800B101000813
:0437FC008901000837
:1038000000127A000800002000000000B83700080D
:10381000D8370008983700080000000000000000BA
:103820000000000000000000000000000000000098
:103830000000000000000000000000000000000088
:103840000000000000000000000000000000000078
:103850000000000000000000000000000000000068
:08386000000000000000000060
:04000005080020B11E
:00000001FF
