:020000040800F2
:10000000001000204142000889420008894200088F
:100010008942000889420008894200080000000067
:1000200000000000000000000000000089420008FD
:100030008942000800000000894200088942000847
:1000400000000000000000000000000000000000B0
:1000500000000000000000000000000000000000A0
:100060000000000000000000000000000000000090
:100070000000000000000000000000000000000080
:100080000000000000000000000000000000000070
:100090000000000000000000000000000000000060
:1000A0000000000000000000000000000000000050
:1000B0000000000000000000000000000000000040
:1000C0000000000000000000000000000000000030
:1000D0000000000000000000000000000000000020
:1000E0000000000000000000000000000000000010
:1000F0000000000000000000000000000000000000
:1001000000000000000000000000000000000000EF
:1001100000000000000000000000000000000000DF
:1001200000000000000000000000000000000000CF
:1001300000000000000000000000000000000000BF
:1001400000000000000000000000000000000000AF
:10015000000000000000000000000000000000009F
:10016000000000000000000000000000000000008F
:10017000000000000000000000000000000000007F
:08018000000000000000000077
:100188000448054B10B5834203D0044B002B00D024
:10019800984710BD600000206000002000000000AB
:1001A80006480749091A8B10C90FC91810B5491014
:1001B80003D0044B002B00D0984710BD60000020EE
:1001C800600000200000000010B5074C2378002BC9
:1001D80009D1FFF7D5FF054B002B02D0044800E0FA
:1001E80000BF0123237010BD600000200000000044
:1001F8008C420008054B10B5002B03D00449054874
:1002080000E000BFFFF7CCFF10BDC04600000000B3
:10021800640000208C420008002243088B4274D3FB
:1002280003098B425FD3030A8B4244D3030B8B42EF
:1002380028D3030C8B420DD3FF22090212BA030CF8
:100248008B4202D31212090265D0030B8B4219D3D9
:1002580000E0090AC30B8B4201D3CB03C01A5241F9
:10026800830B8B4201D38B03C01A5241430B8B4241
:1002780001D34B03C01A5241030B8B4201D30B032A
:10028800C01A5241C30A8B4201D3CB02C01A524151
:10029800830A8B4201D38B02C01A5241430A8B4214
:1002A80001D34B02C01A5241030A8B4201D30B02FD
:1002B800C01A5241CDD2C3098B4201D3CB01C01A17
:1002C800524183098B4201D38B01C01A5241430921
:1002D8008B4201D34B01C01A524103098B4201D30F
:1002E8000B01C01A5241C3088B4201D3CB00C01A7C
:1002F800524183088B4201D38B00C01A52414308F4
:100308008B4201D34B00C01A5241411A00D2014618
:10031800524110467047FFE701B5002000F006F88B
:1003280002BDC0460029F7D076E770477047C0463F
:10033800114B70B51C680500236B002B03D00022FD
:100348001D615A6170BD182000F028F9031E206352
:100358000CD00A4A00210260094A4260094A8260B8
:100368000B228281012018615961E8E700224621A9
:10037800054B064800F050F8040000200E33CDABC2
:1003880034126DE6ECDE05003846000850460008D9
:10039800184B70B51D682C6B002C0ED02069616954
:1003A800154A164B01F0C2FE0122002312184B41D8
:1003B800580040082261636170BD182000F0EEF813
:1003C800041E28630FD00E4B012203600D4B4360BF
:1003D8000D4B83600B23838100230261436107482F
:1003E8000A4A064BE6E700225221094B094800F069
:1003F80013F8C046040000202D7F954C2DF4515869
:100408000E33CDAB34126DE6ECDE05002E7F954C35
:10041800384600085046000870B514001A000A4B08
:1004280006001B6884B0D868002C0AD0074B084D1A
:100438000193009133002900029400F0CFF800F0F6
:1004480035F8044B1C00F2E7040000207C46000845
:100458008C46000888460008130010B50022FFF7F4
:10046800DBFFC04670B50D4B0D4D5E1BB610AB42A1
:1004780005D0002408CD01349847A642FAD803F0E5
:1004880001FF084B084D5E1BB610AB4205D0002497
:1004980008CD01349847A642FAD870BDF84600083E
:1004A800F8460008FC460008F8460008062010B583
:1004B80000F0F8FC012001F0BDFEC04670B5012532
:1004C8000B4B84B06D4269460600002218680095FF
:1004D800019500F0B9FA2900002801DB009D019977
:1004E800002E01D035607160280004B070BDC04690
:1004F80004000020F0B50500830749D0541E002AE7
:1005080045D003000326CAB202E00135013C3ED3C0
:1005180001332A703342F8D1032C30D9FF220A4024
:100528001502AD182A04AD180F2C34D92700103F36
:100538003F093E01B4461E001A0010366644156095
:1005480055609560D56010329642F8D101373F0169
:10055800DB190F270C22274022403C00002A0ED02E
:100568003E1FB608B400A4461A001C1D644420C2ED
:10057800A242FCD103240136B6009B193C40002C52
:1005880005D0C9B21C19197001339C42FBD1F0BDCA
:1005980003001400C0E72700E2E7C04610B5034B8C
:1005A8000100186800F042FF10BDC046040000209A
:1005B80010B5034B0100186800F0C0FF10BDC0461D
:1005C800040000200CB400B583B004AB04CB019345
:1005D80000F096F803B008BC02B018470EB400B596
:1005E80082B003AB0100054804CB0068019300F01A
:1005F80087F802B008BC03B01847C04604000020C2
:10060800F0B505000F2A31D903273E000D430C0031
:1006180003002E402F4234D11500103D2D09AC4661
:100628002F013F1865685D60A5689D60E568DD601D
:10063800256810341D601D001033BD42F2D1654697
:100648000F230C2401352D01491913404519144273
:100658001AD0043B9B0801339B008C59AC510436DB
:100668009E42FAD10323AD1989191A40561E002A51
:1006780006D00023CC5C1A00EC5401339642F9D121
:10068800F0BD0500561EF4E71A00EFE7936810B5B1
:10069800013B9360002B04DA9469A34207DB0A2923
:1006A80005D01368581C10600800197010BD00F0C0
:1006B80071F9FBE7F8B506000F00002B0DD0140008
:1006C800D51802E00134AC4207D03A003000217856
:1006D800FFF7DCFF431CF5D1F8BD0020FCE7C0465E
:1006E80010B5140092680023002A05D0220000F0FB
:1006F800BFF900220300A26000221800626010BD4A
:10070800F0B54E464546DE465746E0B58146884632
:1007180014001E009FB0002803D0036A002B00D1EC
:100728001FE143469B891B0700D48FE043461B69A2
:10073800002B00D18AE0002306AD6B6120336B7675
:100748001033AB765346A346874F059603935B4613
:100758001B78002B00D19BE05C4603E063780134F2
:10076800002B7DD0252BF9D15B46E31A9A465C45D0
:100778007BD12378002B00D18AE0012300225B4241
:10078800069207930022002308920993002343321C
:10079800AB54AB6501339B46013406E05A46C01B97
:1007A80082401C0029680A432A6005223800217803
:1007B80001F09CFA631C1E000028EFD12A68D106BC
:1007C80002D5432120306854110702D543212B203C
:1007D800685421782A2967D1059B191D1B68059142
:1007E800002B00DA98E0EB6061782E2900D172E0E6
:1007F8005E4C0322200001F079FA002806D040233D
:10080800001B83402A68013613432B603178731C20
:10081800062257489B46297601F068FA002800D13D
:1008280080E0544B002B67D005AA0092290042466D
:100838004846514B00E000BF0390039B013327D08B
:10084800039A6B69944663446B6180E74146484666
:1008580000F04AFF002800D16DE7012040421CE06B
:100868005B46E31A9A465C4512D03B000026474691
:10087800A0464C46994602E00136B24543D95B464C
:100888003A002000995DFFF701FF0130F4D1B84626
:1008980043469B895B06E0D468691FB0F0BCBB4641
:1008A800B246A946A046F0BD0800303826000928FF
:1008B8009BD8EA68140000E00133A20012191978E5
:1008C80052001418080030380928F5D91E00EC60C9
:1008D8002E2900D08CE771782A292DD1059BB01CD0
:1008E8001A1D1B6805926B60002B02DA01235B421C
:1008F8006B60B17806007BE70722059B07339343BB
:10090800083305939CE74B466A69A146524444461E
:100918006A61B8461F002CE75B42EB6002231A436A
:100928002A6061E705AA0092290042464846124B10
:1009380001F020F8039080E70800002330380136E2
:100948006B60092800D953E71A0093009B18717847
:100958005B001A180800303801360928F5D96A6092
:1009680046E700F03DFCDCE6BC460008C44600084B
:10097800C846000800000000BD06000810B50400C5
:100988001300034A10680A002100FFF7B9FE10BDE2
:1009980004000020F8B505000E001400002802D05D
:1009A800036A002B41D0A369A360A3891B071BD549
:1009B8002369002B18D0FF22F7B26169164022681C
:1009C800D31A99421FDD0133A1680139A160511C76
:1009D8002160177062699A421ED0A389DB0701D58E
:1009E8000A2E19D03000F8BD2100280000F07CFE46
:1009F800002817D1FF222369F7B2616916402268DF
:100A0800D31A9942DFDC2100280000F0A7FC002857
:100A180008D101232268D7E72100280000F09EFCB6
:100A28000028DFD001267642DCE700F0D9FBBAE7E0
:100A3800030010B50A00034908681900FFF7AAFF68
:100A480010BDC04604000020002370B5074D040007
:100A5800080011002B6001F0AFFB431C00D070BDF3
:100A68002B68002BFBD02360F9E7C0460C0400205C
:100A7800F0B54E46DE4657464546E0B5936883B026
:100A88000C0091460090002B5FD00C23CA5E130720
:100A980063D50B69002B60D04B461F68930723D59D
:100AA800A36A00269A46B34B00259846216A002D72
:100AB80016D02B00454500D9AE4B32000098D047E0
:100AC800002859DD4B464A469B6836181B1A2D1AD2
:100AD8009360002B39D0A36A216A9A46002DE8D189
:100AE8003E687D680837E2E7D30762D50023B84639
:100AF80000209A4600261F00002E45D000284CD022
:100B08003B00B3469E4200D99B4620682269A568EF
:100B18006369904203D9ED18AB4500DDFEE05B4503
:100B280000DDEEE0A56A5246216A0098A847051E36
:100B380022DD01207F1B19D04B464A469B68AA44F8
:100B48005B1B761B9360002BD6D1002003B0F0BC52
:100B5800BB46B246A946A046F0BD2100009800F069
:100B6800C3FD00280DD10C23E25E95E72100009813
:100B780000F0F4FB0028DFD00C22A35E40221343D0
:100B8800A38101204042E1E70822434694465E687B
:100B9800E044002EF8D01B689A4632000A215046DD
:100BA80001F0A4F8002800D1DBE053460130C71A51
:100BB800A6E7002380219A4689008B46564655466B
:100BC8002068A36884469846002D5CD059460A429E
:100BD8005DD09A46AB4200D990E09023DB001A42E0
:100BE80032D02169431A6069019343001B18D80F5A
:100BF800C3185810019B824601335B19834201D9FF
:100C08009A461800520500D497E00100009800F0B9
:100C18000DFC8046031E00D1A6E0019A2169FFF76A
:100C2800EFFCA389544A134080221343A38143460F
:100C38002361019B1A004244944622605246A8460A
:100C4800AA46D31A6261A36052463100604600F09A
:100C5800D1FC4246A8460025A36820689B1A504448
:100C6800A36020604B4642469B6846449B1A4A460E
:100C7800936000D169E70C23E25E2068A36884468C
:100C88009846002DA2D13E687D6808379AE7226908
:100C980082421BD362699046AA4217D88023280053
:100CA8001B069D4200D33548414601F055F943469D
:100CB800A26A43439046216A32000098C047002840
:100CC80000DC59E780464346ED1ACBE79846AB422D
:100CD80000D9A8464246310000F08CFC4246A36881
:100CE80020689B1A4044A3602060002BEBD12100B0
:100CF800009800F033FB0028E5D03DE7A846AA4657
:100D0800A2E75A46514600F075FC5A46A3685D466C
:100D18009B1AA36023685B4423600AE751462A00B4
:100D280000F068FC236821005B190098236000F03C
:100D380015FB002800D1FCE61EE70200009800F031
:100D480039FD8046002800D071E7009D2169280000
:100D580000F0F4FB8022A3899343743A1BB22A6003
:100D68000CE7731C1F00CCE6009A0C3313600C22AE
:100D7800A35E03E700FCFF7F7FFBFFFFFFFFFF7F12
:100D8800C36B10B50400002B01D0002010BD8021DA
:100D980000F04CFBE063002806D0020000238032FC
:100DA80008C09042FCD1F0E701204042EEE7C0467F
:100DB80070B505000C0016001F2907D8C06B002865
:100DC80009D0A40004192068266070BD16230360AA
:100DD80001204042F9E78021280000F027FB0100AC
:100DE80003000022E86380310028F1D004C38B425D
:100DF800FCD1E6E770B505000C001F291ED8C36BAF
:100E0800002B0ED08A009B181A68002A09D0012AE4
:100E180005D0511C0ED000212000196090470020F9
:100E280070BD280001F032F822000100280001F00E
:100E380019F8F5E7162303600120F1E7162303608C
:100E480001204042ECE7C04670B505000C001F29A0
:100E580024D8C36B002B14D0A2009B181A68002A50
:100E680009D0511C0BD0012A07D00021200019609D
:100E78009047002070BD0120FCE70320FAE702201C
:100E8800F8E7802100F0D2FA031EE86306D00021BB
:100E98000200803002C28242FCD1DDE701204042DC
:100EA800E8E7C046144B70B504001D681F281DD81C
:100EB800EB6B002B0DD082009B181A68002A08D013
:100EC800012A04D0511C0DD0002119609047002040
:100ED80070BD280000F0DAFF22000100280000F0B1
:100EE800C1FFF5E7162301202B60F1E71623012047
:100EF8002B604042ECE7C04604000020114B70B55F
:100F080004000E001D681F2807D8E86B002809D0C8
:100F1800A40004192068266070BD16232B600120E8
:100F28004042F9E78021280000F080FA0100030020
:100F38000022E86380310028F1D004C39942FCD133
:100F4800E6E7C046040000200C4B10B51C68E36BB4
:100F5800002B01D0002010BD8021200000F066FA8F
:100F6800E063002806D002000023803208C09042C7
:100F7800FCD1EFE701204042EDE7C0460400002025
:100F8800174B70B504001D681F2825D8EB6B002B84
:100F980014D0A2009B181A68002A09D0511C0BD043
:100FA800012A07D00021200019609047002070BD59
:100FB8000120FCE70320FAE70220F8E78021280057
:100FC80000F034FA031EE86306D0002102008030E6
:100FD80002C29042FCD1DCE701204042E7E7C0466C
:100FE800040000200020704710B5034A0349044854
:100FF80000F058FB10BDC0465400002065130008DF
:101008000800002041680B4B10B50400994201D03C
:1010180000F0A4F9A168084B994202D0200000F022
:101028009DF9E168054B994202D0200000F096F93D
:1010380010BDC046CC020020340300209C030020D1
:1010480000207047F8B5CE464746344C344B354AF5
:101058002000002580B51A600423082200215C3096
:1010680025606560A560656625616561A561E360C9
:10107800FFF740FA2C4B2000994663622B4B2C4F0C
:101088009846A362CC23E5502A4B2B4E63678023F6
:1010980008220021C430E550E7622663A566E566AC
:1010A8002567A567E5672462FFF724FA22008823ED
:1010B8006832E2504A460433E25042462000043384
:1010C800E2500433E7500433E6503833E550043334
:1010D800E5500433E550194A5C33E550583BE2507B
:1010E8000433E5502D300433E55008220433002141
:1010F800FF30E550FFF7FEF92200F023D032E2502E
:101108004A460433E25042460433E2500433E7507F
:101118000433E650C0BCB946B046F8BDCC02002046
:10112800C8020020F10F0008B11D0008DD1D0008ED
:101138001D1E0008090001004D1E000812000200D3
:10114800F8B5244B07001B68002B3BD0224E736870
:10115800B468013B03D51BE06834013B18D30C226B
:10116800A55E002DF8D120001C4B08220021E36069
:1011780065662560A560656025616561A5615C306F
:10118800FFF7B8F96563A563A564E5642000F8BDB9
:101198003568002D01D02E00D9E7D6213800490046
:1011A80000F044F9041E10D00423D0220560250065
:1011B80043600C300021A0605200FFF79BF93460B7
:1011C8002E00C4E7FFF73EFFC0E70C2330603B600A
:1011D800DCE7C046C8020020540000200100FFFFE1
:1011E800036A10B5002B00D010BD044B0362044BFA
:1011F8001B68002BF8D1FFF725FFF5E70D10000855
:10120800C80200207047C0467047C04610B500208D
:10121800024A034900F046FA10BDC04654000020B7
:10122800ED0F000810B50020024A034900F03AFA11
:1012380010BDC0465400002049100008F0B5C6464D
:1012480000B50C228B5E07000C001A073CD44A68D4
:10125800002A5CDDE66A002E32D000223D68216A51
:101268003A60DA0457D4002201233800B04702005C
:10127800431C65D00C21635EE66A216A5B0706D5CC
:101288006368D21A636B002B01D0236CD21A002337
:101298003800B047431C40D00023636023692360B3
:1012A800A389DB044AD4616B3D60002908D0230080
:1012B8004433994202D0380000F040F900236363B8
:1012C800002080BCB846F0BD0E69002EF8D00D682D
:1012D8000022AD1B0E609B0700D14A69A260002D59
:1012E80004DCEDE736182D1A002DE9DDA36A32007B
:1012F800984638002B00216AC0470028F2DC4022BB
:10130800A38913431BB20120A3814042D9E70A6C89
:10131800002A9FDCD4E7626DB0E739680C22A35E2F
:101328001D2916D80C4ACA40D20712D5002262607D
:1013380022692260DB04B6D50029B4D16065B2E722
:101348003B68002B96D01D2B01D0162BD7D13D60C2
:10135800B6E740221343D6E7010040200B6970B579
:1013680005000C00002B08D0002802D0036A002BCF
:101378000AD00C22A35E002B01D1002070BD2100F1
:101388002800FFF75BFFF9E7FFF72AFFF1E7C04600
:1013980070B5041E18D00F4B1D680369002B08D0C8
:1013A800002D02D02B6A002B0AD00C22A35E002B42
:1013B80001D1002070BD21002800FFF73FFFF9E7A9
:1013C8002800FFF70DFFF0E7034A0449044800F03E
:1013D80069F9EFE7040000205400002065130008B5
:1013E8000800002070B5104E050033680C00002B73
:1013F80015D02100280000F0C5FC431C0CD00323A5
:10140800C41C9C43A04205D0211A280000F0BAFC55
:10141800013001D0200070BD01246442FAE70021A8
:1014280000F0B0FC3060E4E704040020F8B50323C2
:10143800CE464746CD1C9D430835060080B50C2D89
:101448001ED20C25A9421DD8300000F0C3FB3A4F2C
:101458007A68002A1AD0140004E063682200002B7E
:1014680014D01C0023685B1BF7D40B2B27D96119F8
:10147800256094425BD051600B6063684B600DE05F
:10148800002DDFDA0C230020336014E0290030003F
:10149800FFF7A8FF0400431C19D00560300000F0D6
:1014A8009BFB200007220B30231D9043C21A984251
:1014B80001D01B1AA350C0BCB946B046F8BD63683A
:1014C800944202D05360E9E743467B60E6E77B68D5
:1014D8009846002B24D0444663689846002BFAD1DE
:1014E8002368002199463000A14400F04BFC814557
:1014F80016D123683000ED1A2900FFF773FF013079
:101508000ED023687A685B1923605368002B02D1D8
:10151800DAE71A005B689C42FBD100235360BDE701
:101528000C233000336000F057FB0020C3E77960DC
:101538000B6063684B60B1E70404002070B50500D8
:10154800002915D00C1F2368002B23DB280000F08E
:1015580041FB274A1368002B05D0A3420BD9216809
:10156800601883422CD028006360146000F034FBBC
:1015780070BDA34210D81A005B68002BF9D110681F
:1015880011188C4218D02CD363605460280000F0E6
:1015980023FBEDE7E418D9E711685018A04214D0EE
:1015A8001FD8216860188342EED118685B6841181B
:1015B800216063605460E9E723681B181360E5E75E
:1015C80018685B6841182160CDE720680918501831
:1015D80011608342DAD118685B6841181160536062
:1015E800D4E70C2328002B6000F0F6FAC0E7C046C9
:1015F80008040020F0B588420AD98B18984207D20F
:10160800531E002A03D0CA5CC254013BFBD2F0BD72
:1016180005000F2A0AD8561E002AF8D00023CC5CF1
:101628001A00EC5401339642F9D1F0E703273E0043
:101638000D430C0003002E402F422DD11500103D04
:101648002D09AC462F013F1825681D6065685D604F
:10165800A5689D60E5681034DD601D001033BD424B
:10166800F2D165460F230C2401352D014919134089
:101678004519144213D0043B9B0801339B008C5935
:10168800AC5104369E42FAD103231A40AD19891988
:10169800561E002AC2D1BAE70500561EBEE71A0038
:1016A800B9E7C046F8B54746CE46884680B5814674
:1016B800170000267D68BC68013D0DD4A389012B65
:1016C80007D90E22A35E013303D021004846C04744
:1016D80006436834013DF1D23F68002FEAD130005B
:1016E800C0BCB946B046F8BD314B70B505001868A6
:1016F8000C00002802D0026A002A4FD00C22A35EF8
:101708001A071DD52269002A24D0D90708D5002137
:10171800A160616900204942A161002A08D070BD1A
:101728000021980700D461690020A160002AF6D141
:101738001A06F4D540221343A38101204042EEE764
:10174800DA062ED55A0714D4226908210B43A3813F
:10175800002ADAD1A0218020890080001940814226
:10176800D3D02100280000F039FA0C22A35E2269A8
:10177800CBE7616B00290AD022004432914204D0A1
:101788002800FFF7DBFE0C22A35E002262632422FE
:1017980093430022626022692260D6E7FFF720FDAA
:1017A800ACE709222A6040221343A381C5E7C0465B
:1017B80004000020F0B5C64607000E00140000B56E
:1017C80000292DD0002A27D000F042FB8046844211
:1017D80003D835004308A34210D321003800FFF78F
:1017E80025FE051E0AD0220044450BD831002800EA
:1017F800FEF706FF31003800FFF7A0FE280080BC86
:10180800B846F0BD310042462800FEF7F9FE310027
:101818003800FFF793FEF1E7FFF790FE0025EDE7AC
:101828001100FFF703FE0500E8E7C046F8B5574684
:101838004E464546DE46E0B51F000A9B924698464E
:101848000A698B6806000C009A4200DA1A005346AF
:101858001A604323E35C002B02D0514601320A6030
:101868002268910661D55346524606201B6802330A
:10187800136022681100104208D1002081461930F7
:101888008346E168A344994247DC11004323E35CA3
:101898005A1E934189060AD53020E1184331087051
:1018A80045215A1C615CA218433202331170220090
:1018B800390030004332C04701301DD05346062559
:1018C8001B68E1689C462368A26820692B40042BAA
:1018D80031D0824239DD00239946121A91440025FD
:1018E8001A3402E001354D452FDA01232200390070
:1018F8003000C0470130F5D101204042F0BCBB4662
:10190800B246A946A046F8BD01239C465346E56861
:101918001B68E144ED1A4D4524DD01235A46390080
:101928003000C0470130EFD1E6E7062111420ED062
:101938005A1E9341BBE76346C91ACB43DB170B40DA
:1019480099468242C9DC0029C9DC0020D6E700207C
:1019580053468146193083461B68E168A34499427F
:10196800DBDC92E743232168E35C5A1E9341890636
:1019780092D49CE7F0B54E46994643239C46574679
:101988004546DE468C446346E0B587B002930C00BA
:10199800097E90460700109A002914D00B00583B86
:1019A800DBB2202B48D888489B00C3589F46136851
:1019B80021681D1D606915601B680E0602D4490662
:1019C80000D5DCE018600023029D23614B4621000E
:1019D80000933800434605AAFFF728FF01301ED0C0
:1019E8002A00414638002369C847013017D02368C8
:1019F800E068059E9B071BD5B04219DD19239A465E
:101A08000025A24404E0E0680135831BAB420FDDEA
:101A18000123524641463800C8470130F3D101201E
:101A2800404207B0F0BCBB46B246A946A046F0BD4E
:101A3800B042F6DA3000F4E72500422301204235AF
:101A4800E154432300222061E254BFE71368216870
:101A5800181D10600D0602D44D0600D594E01A68D2
:101A680016006368002A00DA92E0584A93460A2270
:101A780003924BE01368206840CB050601D440066A
:101A88007FD41360514B9B466F2900D191E00A2304
:101A9800039337E013682500191D11601A68422363
:101AA80001204235E254CCE71368191D11601D6806
:101AB80000212800626800F019F9002800D181E0AF
:101AC800401B6060BDE7202321680B43236045214C
:101AD800782060543E498B46116840C9180603D4E3
:101AE800580601D53604360C1160DA0702D52022D3
:101AF80013432360002E03D12022236893432360DD
:101B08001023039343230022E2546368A360002B4D
:101B180018DB042122688A432260002E12D1029D1C
:101B2800002B49D1039B082B1ED0029B5B1B236112
:101B38004CE745235821E154244923688B46CBE7D9
:101B48002368C4E7039B9A46029D30005146FEF77E
:101B5800E9FB5B465B5C013D2B7033000600534597
:101B6800F3D2039B082BE0D12368DB07DDD562683D
:101B780023699A42D9DC3023013D2B70D5E71880C0
:101B880021E73604360C7CE700269E5F320068E7C2
:101B980043222D20A054A360002B02DB0423994389
:101BA80021600A239A46094B76429B460A230393EF
:101BB800CAE708230393A5E75B4625001B7842354F
:101BC8002B70AFE760683CE7B4450008D0460008D2
:101BD800E44600087047C0467047C046F0B50C237D
:101BE800CD5E06000C0097B0AA0707D5230047333F
:101BF800236023610123636117B0F0BD0E23C95E22
:101C080000292BDB6A4600F06BF9002824DB8027CB
:101C1800FF0039003000019DFFF708FC002833D091
:101C28008022A38920601343A381F0231B021D4057
:101C38008023206167619B019D42DDD130000E2326
:101C4800E15E00F08DF80028D6D00322A3899343E3
:101C580001221343A381CFE70C23E55E0F4B2D062A
:101C6800ED171D408023DB009C46654429003000A9
:101C7800FFF7DCFB002807D08022A38920601343EC
:101C8800A38120616561B7E70C22A35E9A05B3D4EE
:101C98000322934302221343A381A7E740FCFFFFDB
:101CA80070B50C001E000E23C95E150096B0002901
:101CB80014DB6A4600F014F900280FDBF0230199C1
:101CC8001B021940084B9C4661444B4259418023F2
:101CD800DB00002031602B6016B070BDA3890021A5
:101CE8001B06F4D54023F4E700E0FFFF70B5CCB243
:101CF80083070DD0531E002A0FD0032504E00130BE
:101D0800284206D0013B08D30278A242F7D170BD21
:101D18001300032B03D8002B14D10020F7E7FF2270
:101D28000A401502AD182A040B4EAD1803E0043B17
:101D38000430032BEFD9026808496A4051189143CF
:101D48003142F4D0C31802E001309842E5D002785D
:101D5800A242F9D1DBE7C04680808080FFFEFEFE0C
:101D6800002370B5064C05000800236000F02CFA2B
:101D7800431C00D070BD2368002BFBD02B60F9E713
:101D88000C040020002370B5064C050008002360F1
:101D980000F03AFA431C00D070BD2368002BFBD03A
:101DA8002B60F9E70C04002070B50C000E25495F84
:101DB80000F082F8002803DB636D1B18636570BDB3
:101DC800A389024A1340A381F9E7C046FFEFFFFF4A
:101DD80000207047F8B50C001F000C23C95E0500F1
:101DE8001600CB050AD40A4B320019402800A181FD
:101DF8000E23E15E3B0000F09BF8F8BD0E23E15E88
:101E08000022022300F080F80C23E15EEBE7C046D5
:101E1800FFEFFFFF70B50C000E25495F00F074F866
:101E2800431C07D08023A2895B0113431BB2606562
:101E3800A38170BDA389024A13401BB2F8E7C046CC
:101E4800FFEFFFFF10B50E23C95E00F023F810BDA9
:101E58000B1F1B68181F002B00DB70470B58C0189E
:101E6800FBE7C046002370B5074D040008001100C9
:101E78002B6000F0B1F9431C00D070BD2B68002B1B
:101E8800FBD02360F9E7C0460C04002010B500F031
:101E98008BF910BD002370B5064C050008002360BF
:101EA80000F072F9431C00D070BD2368002BFBD0F2
:101EB8002B60F9E70C04002070B50400080011003D
:101EC8001A000023054D2B6000F096F9431C00D042
:101ED80070BD2B68002BFBD02360F9E70C040020B1
:101EE800002370B5074D0400080011002B6000F0B6
:101EF80053F9431C00D070BD2B68002BFBD0236026
:101F0800F9E7C0460C04002070B504000800110071
:101F18001A000023054D2B6000F066F9431C00D021
:101F280070BD2B68002BFBD02360F9E70C04002060
:101F380070B50400080011001A000023054D2B603D
:101F480000F070F9431C00D070BD2B68002BFBD04B
:101F58002360F9E70C04002003460B437FD40022DA
:101F680043088B4274D303098B425FD3030A8B4225
:101F780044D3030B8B4228D3030C8B420DD3FF228F
:101F8800090212BA030C8B4202D31212090265D05D
:101F9800030B8B4219D300E0090AC30B8B4201D310
:101FA800CB03C01A5241830B8B4201D38B03C01A57
:101FB8005241430B8B4201D34B03C01A5241030BCE
:101FC8008B4201D30B03C01A5241C30A8B4201D37F
:101FD800CB02C01A5241830A8B4201D38B02C01A2A
:101FE8005241430A8B4201D34B02C01A5241030AA1
:101FF8008B4201D30B02C01A5241CDD2C3098B4286
:1020080001D3CB01C01A524183098B4201D38B0102
:10201800C01A524143098B4201D34B01C01A5241A5
:1020280003098B4201D30B01C01A5241C3088B42EA
:1020380001D3CB00C01A524183088B4201D38B00D5
:10204800C01A524143088B4201D34B00C01A524177
:10205800411A00D201465241104670475DE0CA0F4E
:1020680000D04942031000D34042534000229C460E
:1020780003098B422DD3030A8B4212D3FC22890118
:1020880012BA030A8B420CD3890192118B4208D3EE
:10209800890192118B4204D389013AD0921100E050
:1020A8008909C3098B4201D3CB01C01A5241830964
:1020B8008B4201D38B01C01A524143098B4201D391
:1020C8004B01C01A524103098B4201D30B01C01ABC
:1020D8005241C3088B4201D3CB00C01A5241830836
:1020E8008B4201D38B00C01A5241D9D243088B428C
:1020F80001D34B00C01A5241411A00D2014663462F
:1021080052415B10104601D34042002B00D5494292
:10211800704763465B1000D3404201B50020FEF7CC
:1021280005F902BD0029F8D016E77047F0B5CE468C
:102138009946030C9C46130447461B0C1D000E00D1
:1021480061460404240C80B50700100C4B4365431A
:10215800414360432C0CC01824188C46A34203D971
:1021680080235B029846C444494679435643230C6E
:102178002D042D0C8919634424046019C918C0BCA6
:10218800B946B046F0BDC04658220120014B404236
:102198001A6070470C04002058220120014B40426D
:1021A8001A6070470C04002058220120014B40425D
:1021B8001A6070470C04002058220120014B40424D
:1021C8001A6070470C0400205822024B00201A6045
:1021D8007047C0460C04002058220120014B4042A1
:1021E8001A6070470C04002058220120014B40421D
:1021F8001A6070470C04002058220120014B40420D
:102208001A6070470C040020044A03001068002874
:1022180002D0C318136070470148FAE71004002081
:102228001804002058220120014B40421A607047D0
:102238000C040020FEE7C046F0B5D64646464F4699
:102248000020C0B5FEF73AF9FEF772F82023424E97
:1022580098463500FF271035B0440024FEF798F85B
:10226800C3171B0EC0183840C01A28550134042C57
:10227800F4D104354545F0D1302334009846370071
:10228800B0442034103722004146380000F0D0F91D
:10229800324B30001900994600F0D2F8320043461C
:1022A800403223CB23C231001B68484613604031BB
:1022B80000F064F94846210000F060F910239846C0
:1022C80090339A46503BC844CA449946B1443500B5
:1022D8004A463900200000F0ABF94035484600F086
:1022E8000DFA280000F00AFA22003900484600F0EA
:1022F8009FF9280000F036FA200000F033FA380081
:1023080000F030FAD04514D0280000F045FA20003B
:1023180000F042FA380000F03FFA4046290000F089
:102328002DF94046210000F029F910239C46E0448D
:10233800CDE70B4E2900300000F020F930002100D5
:1023480000F01CF92A003900200000F071F9E0BC07
:10235800BA46B146A846F0BD7C000020E000002047
:1023680080010020F8B502264746CE46300080B5E9
:102378000C0015001F0008400E422FD00F2A35D937
:10238800102219002348FEF73BF9012620221023CA
:1023980090461020264219D0454527D3FC1800F056
:1023A8007FFF60231B4F9946FB5C012B20D0102236
:1023B80021003800FEF724F94B46FE5400F078FF60
:1023C80072202200102100F0E5FD4046401B431E0C
:1023D80098418000C0BCB946B046F8BD102201261D
:1023E800002390462642F1D04545D7D20420F1E794
:1023F8003800102221003030FEF702F9FFF71CFFE9
:1024080000F056FF3A0072201021403200F0C2FD61
:102418004046DBE77C00002010B500F08FFE00F09E
:10242800BBFE00F0FBFE00F053FC10210120034A24
:1024380000F082FC00F0A2FCFCE7C0466D23000817
:10244800F0B5DE4657464E4645460C00E0B501005D
:102458008BB010222000FEF7D3F8A37B444A9A469B
:10246800A37A21009946A379E7789846A378E67B72
:102478009C46637BE57A0693637AE07905936379F2
:102488001031049363780793237B0393237A029391
:1024980023790193237864469B46364B94460893E8
:1024A8004B4609936346089A1B5C12785340994639
:1024B8005B464A4653409B4663465B5D99464A469F
:1024C800019B534062460193925D029B53406246D2
:1024D8000293D25D039B53405A460393019B0A70B3
:1024E8000B71029B0B72039B0B73079B5340079363
:1024F800049A019B5A400492029B059A5A400592FD
:10250800039B069A5A40079B06924B705C404346D1
:10251800049A67404A71059A8C704A72069ACF707D
:102528004A73049A53409846059A099B5340099365
:102538005346069A53409A4643468B7153468B73CB
:10254800434658405346099A5E408A725540089A55
:10255800094B0132C871CD72CE73089210319A427C
:10256800A0D10BB0F0BCBB46B246A946A046F0BD10
:10257800B0440008A4420008AE420008CB1C1B1A55
:10258800062B14D903000B439B0710D102680B6874
:1025980053400B6042684B6853404B6082688B68BD
:1025A80053408B60C268CB685340CB607047027859
:1025B8000B7853400B7042784B7853404B708278BD
:1025C8008B7853408B70C278CB785340CB700279AC
:1025D8000B7953400B7142794B7953404B71827997
:1025E8008B7953408B71C279CB795340CB71027A86
:1025F8000B7A53400B72427A4B7A53404B72827A71
:102608008B7A53408B72C27ACB7A5340CB72027B5F
:102618000B7B53400B73427B4B7B53404B73827B4A
:102628008B7B53408B73C27BCB7B5340CB73BDE713
:1026380030B50624C31CCD1C9B1AAD1A9C429B4185
:10264800AC42A4415B4264421C4215D013000B43C8
:1026580003439B0710D10C680368634013604C6800
:102668004368634053608C68836863409360C368C1
:10267800C9684B40D36030BD0C7803786340137051
:102688004C784378634053708C78837863409370B8
:10269800CC78C3786340D3700C79037963401371A5
:1026A8004C794379634053718C7983796340937192
:1026B800CC79C3796340D3710C7A037A634013727F
:1026C8004C7A437A634053728C7A837A634093726C
:1026D800CC7AC37A6340D3720C7B037B6340137359
:1026E8004C7B437B634053738C7B837B6340937346
:1026F800C37BC97B4B40D373BDE7C046184B0278F8
:102708009A5C027042789A5C427082789A5C827015
:10271800C2789A5CC27002799A5C027142799A5CBA
:10272800427182799A5C8271C2799A5CC271027A2A
:102738009A5C0272427A9A5C4272827A9A5C8272DB
:10274800C27A9A5CC272027B9A5C0273427B9A5C80
:102758004273827B9A5C8273C27B9B5CC3737047B3
:10276800B044000842790379027182794271C279D2
:10277800C3718271827A037A0272C27A8372437A4F
:102788004272827BC372C37BC273427B8273027BB9
:10279800037342737047C046F0B5DE4657464E464F
:1027A8004546E0B50379057A9946037B4A469A4639
:1027B80054466F4B0678595D724051406D4A99B046
:1027C800145D109111940996915D4C4656466C40E3
:1027D8009E5D4C40129413964678417B477A447923
:1027E8000491310005946140DC5D08966140049CC9
:1027F8000797145D6140059C0B91915D049E7C4098
:1028080061409C5D61400D918178867B8846817925
:1028180044468C466746817A7C400F00595C0A978B
:102828006140945D614064467C4047460E912100BA
:10283800D45D574661409C5D61400F91C17801911C
:10284800C4790694C17A0291C17B0C950391290041
:102858007940099FDC5D4F466140D55D049C079F28
:1028680069406740089C0A9D1C5D75407C40059F37
:10287800D75D7C404746DF5D24027D406746D75DD3
:1028880021437D40029C039F2D047C40019F2943E6
:10289800DF5D0C9D7C40069FD75D7C400F002406C1
:1028A80027435446BB46099F67404C46195D545D13
:1028B8007940049D089F61407D40059FDF5D6F4022
:1028C800079D555D6F403F02394347467E40674646
:1028D8000A9DDC5D555D74406C40274D019E294082
:1028E800039D2404754021432C00069F0902DD5DE9
:1028F800090A6C40029D7E40555D6C4024062143C8
:102908005C4615910B99119D14940C02109969401D
:1029180021430E9D029C2D041C5D29437440039E97
:102928000D9D965D2D0274402406139E2143129C32
:1029380016917440A446029C0F9E67403C00019F7C
:102948003604D25D14A96240039C1B5D5A4063465D
:102958002B4312063343134310221793FDF750FEFF
:1029680019B0F0BCBB46B246A946A046F0BDC04669
:10297800B0430008B0420008FFFF00FF30B5C1B007
:102988006A4600231370012393706B4650700A78CF
:10299800DA7043B2002B00DACDE04100CBB249B285
:1029A800002900DACFE05B00D9B25BB2002B00DA75
:1029B800D1E04900CBB249B2002900DAD3E05B008C
:1029C800D9B25BB2002B00DAD5E04900CBB249B2EC
:1029D800002900DAD7E05B00DCB25BB2002B00DA3A
:1029E800D9E06400E1B264B2002C00DADBE0012334
:1029F8004900C9B259404BB2002B00DADDE049006A
:102A0800CBB249B2002900DADFE05B00D9B25BB291
:102A1800002B00DAE1E04900CBB249B2002900DA24
:102A2800E3E05B00D9B25BB2002B00DAE5E04900D5
:102A3800CBB249B2002900DAE7E05B00D9B25BB259
:102A4800002B00DAE9E04900CBB249B2002900DAEC
:102A5800EBE05B00DBB2534059B2002900DAEDE04D
:102A68005B00D9B25BB2002B00DAEFE04900CBB2D1
:102A780049B2002900DAF1E05B00D9B25BB2002B61
:102A880000DAF3E04900CBB249B2002900DAF5E0F8
:102A98005B00D9B25BB2002B00DAF7E04900CBB299
:102AA80049B2002900DAF9E05B00D9B25BB2002B29
:102AB80000DAFBE04900CBB269460B7100234B7189
:102AC800002801D101330B70002A1AD103215A1CA6
:102AD800FF326A44013AFF3ACB1A13706B461A79EF
:102AE8000323002A11D06A465279002A1AD06C466C
:102AF800A51D2078013400F0FDFBA542F9D141B0B5
:102B080030BD6A461279002A0CD104215A1CFF32C2
:102B18006A44013AFF3ACB1A13706A465279042381
:102B2800002AE4D105215A1CFF326A44013AFF3ACF
:102B3800CB1A1370DBE74D215B004B4059B2DBB277
:102B4800002900DB2FE74D23490059404BB2C9B299
:102B5800002B00DB2DE74D215B004B4059B2DBB267
:102B6800002900DB2BE74D23490059404BB2C9B27D
:102B7800002B00DB29E74D215B004B4059B2DBB24B
:102B8800002900DB27E74D234C005C4063B2E4B228
:102B9800002B00DB25E74D215B0059404CB2C9B240
:102BA800002C00DB23E74D2364005C400123E1B2E5
:102BB80059404BB2002B00DB21E74D215B004B4015
:102BC80059B2DBB2002900DB1FE74D234900594009
:102BD8004BB2C9B2002B00DB1DE74D215B004B4017
:102BE80059B2DBB2002900DB1BE74D2349005940ED
:102BF8004BB2C9B2002B00DB19E74D215B004B40FB
:102C080059B2DBB2002900DB17E74D2349005940D0
:102C18004BB2C9B2002B00DB15E74D215B004B40DE
:102C280059B2DBB2002900DB13E74D2349004B40C2
:102C3800DBB2534059B2002900DB11E74D234900AC
:102C480059404BB2C9B2002B00DB0FE74D215B00A6
:102C58004B4059B2DBB2002900DB0DE74D23490098
:102C680059404BB2C9B2002B00DB0BE74D215B008A
:102C78004B4059B2DBB2002900DB09E74D2349007C
:102C880059404BB2C9B2002B00DB07E74D215B006E
:102C98004B4059B2DBB2002900DB05E74D23490060
:102CA80059404BB2C9B2002B00DB03E74D215B0052
:102CB8004B40DBB200E7C04600B583B06B46D91D78
:102CC800032372200B70FFF759FE002003B000BDEC
:102CD80010B5154C23680F2B1CDC76205900134ABD
:102CE800C9188900885452180021516010490133CD
:102CF800916023600F2B13DC772059000B4AC91809
:102D0800890088545218002151600A4901339160A2
:102D1800236010BD612000F0EDFA23680F2BEBDD76
:102D2800612000F0E7FAF4E7900100209401002008
:102D3800C12C00080131000870B50E4E33680F2B06
:102D48000DDCFF2910D85D000B4CED18AD0028559F
:102D58000020641901336160A260336070BD612096
:102D680000F0C8FA0120F9E7622000F0C3FA012058
:102D7800F4E7C0469001002094010020F0B5DE463B
:102D8800454657464E46E0B5C3B000236A4602ADF5
:102D9800D37103AB2C009B4600F092FA20700028F8
:102DA80051D00134A345F7D100232C782B70032C84
:102DB8000CD8002C0AD0002101E0002B06D02B5D96
:102DC8002A191C19E4B21170032CF6D96F4B196833
:102DD800002900DCD7E0002200276E786C4804E068
:102DE8000132D2B217008A4205DA7B00DB199B0058
:102DF800C35CB342F4D18F4200D1C2E00422EB7825
:102E0800D94605339046A34217DA04236A4665205B
:102E1800D11DD371FFF7B2FD43B0F0BCBB46B2463B
:102E2800A946A046F0BD43465E1C01239C46EB78AC
:102E3800E1440433B34208DBB04600F041FA4B46A4
:102E480018700028EFD10523E0E700F039FAA855FB
:102E58000028DAD12B199C46F2B2131B0133DBB2DE
:102E6800994661462B5D033A0870D2B299450FD94D
:102E7800002B0DD000218A4601E0002908D06146C8
:102E88005646CC18C95C2670CB18DBB29945F4D8E5
:102E980009244D216C4429E05B00D8B25BB2002BB9
:102EA80030DB4000C3B240B2002831DB5B00D8B24F
:102EB8005BB2002B32DB4000C3B240B2002833DBE8
:102EC8005B00D8B25BB2002B34DB4000C3B240B227
:102ED800002835DB5B00D8B25BB2002B36DB013A49
:102EE8004000D2B2C0B20134FF2A37D0267846401B
:102EF800F3B270B23606CFD54000484043B2C0B2F4
:102F0800002BCEDA5B004B4058B2DBB20028CDDA9A
:102F18004000484043B2C0B2002BCCDA5B004B40C3
:102F280058B2DBB20028CBDA4000484043B2C0B206
:102F3800002BCADA5B004B4058B2DBB20028C9DA72
:102F48004000484043B2C0B2002BC8DA5B00013AE7
:102F58004B40D2B2D8B20134FF2AC7D14346EA5C0B
:102F68000223824200D051E77C00094BE419A400F7
:102F78001B199C68EA785B46A9786878A047030023
:102F880044E7012342E7002735E7C04690010020C7
:102F980094010020F0B5C64600B5C0B00E0000236D
:102FA80011006A46137050706B469670002E00D15F
:102FB80099E03200D81CFDF723FB341DF31C9C4616
:102FC800A046701C0536C0B2F6B26B46591C0D00FF
:102FD80000234D2229E05B00DFB25BB2002B2FDB20
:102FE8007F00FBB27FB2002F30DB5F00FBB27FB205
:102FF800002F31DB5B00DFB25BB2002B32DB7F00DE
:10300800FBB27FB2002F33DB5B00DFB25BB2002B79
:1030180034DB7F00FBB27FB2002F35DB01385B0069
:10302800C0B2DBB20135FF2836D02F787B405FB2C3
:10303800002FD0DA7F0057407BB2FFB2002BCFDAE7
:103048005B0053405FB2DBB2002FCEDA7B00534007
:103058005FB2DBB2002FCDDA7F0057407BB2FFB200
:10306800002BCCDA5B0053405FB2DBB2002FCBDA27
:103078007F0057407BB2FFB2002BCADA5B00534097
:103088005FB2DBB2002FC9DA7B0001385340C0B20F
:10309800DBB20135FF28C8D16A46604613540023C5
:1030A80040461354012E11D9002201330878002814
:1030B80007D1501CFF30684401389A1AFF38027053
:1030C8001A000133DBB201319E42EFD16D46002672
:1030D8002878013600F00EF90135A642F8DD40B037
:1030E80080BCB846F0BD04239846013B0526012064
:1030F8009C46042469E7C04670B50E4B84B01D7821
:103108006A461968002D0DD0002300246A460A4E2D
:10311800600000198000305C0133DBB210551C00E0
:10312800AB42F5DB7220C9B2FFF734FF002004B0D0
:1031380070BDC0469001002094010020F0B5902693
:10314800002401250423032797B0F605300005A9BC
:10315800059306950794089700F024FC102305A909
:103168003000059306950794089700F01BFC03228E
:1031780005230AA80A920B930D94139400F0CAF839
:103188000723002101A8019302950394049400F0F9
:1031980045FB17B0F0BDC046802230B51C4C9202EA
:1031A800636989B013436361636990201340009396
:1031B800C022009B0223D200029203930125012220
:1031C800032302A9C00504920593069500F0EAFBC3
:1031D8008022A369D2011343A361A3690D48134058
:1031E80003220193019B236B93432B4323630A4BD5
:1031F8000360E1239B02436000238360C360036193
:1032080083610C33436100F08DFD09B030BDC046C9
:1032180000100240540200200038014080211F4B5A
:10322800D0B55A6989020A435A615B6988B00B4074
:1032380090240193002603278022019B0123E405A3
:10324800200002A9029203930496059700F0AAFBB6
:1032580010220123200002A90292039304960597E5
:1032680000F0A0FB01230422200002A9029203938C
:103278000496059700F096FB20000022802100F0BC
:103288004BFD20000122102100F046FD01220421FF
:10329800200000F041FD08B0D0BDC046001002403B
:1032A800902010B501228021C00500F035FD10BD29
:1032B800902010B500228021C00500F02DFD10BD22
:1032C800F0B583B06B460827084E094CDD1D02E0B7
:1032D800236A3B432362322301222900300000F095
:1032E800CBFD0028F4D1287803B0F0BD54020020AB
:1032F8000038014000B583B06B460122D91D087023
:10330800024B034800F0C2FE03B000BD8813000062
:1033180054020020F0B5CE46474680B5056883B014
:10332800EB072FD50C22B6494B681340042B00D16C
:1033380045E14B681A40082A00D13CE1B14B42688C
:103348001C68611C012A00D1BAE1002A00D1BEE143
:10335800052A00D13DE2AA4AAB4F16683E401660E6
:103368001668AA4F3E4016608026A21CA44F19601A
:103378006734B60203E01A60013294422AD03968F1
:103388003142F8D0AB073BD50C239D4A51680B421C
:1033980029D051680B40082B22D09A4AC16813687B
:1033A8005C1C002900D1C3E1012795490E683E4302
:1033B8000E60146002240E68344219D19E1C1660F7
:1033C8000E68344214D1DE1C166009680C420FD115
:1033D80004331360032003B0C0BCB946B046F0BD47
:1033E8005368DB03D9D4864B1B689B0700D561E182
:1033F800F824834903690A68DB00A24313430B607E
:103408002B071CD57F4BC1691A68541C002900D0B2
:10341800E0E001277A494E6ABE434E621C600224EE
:103428004E6A34420BD04E6A344206D0496A0C4286
:1034380000D1E2E004321A60CCE702321A606B076E
:1034480061D5802200246E4B5205D969A1461142EC
:1034580008D1D9691143D961DB6913400193019BF4
:103468000123994680266A4C664B216876001A68C3
:10347800314218D1511C8C46216800273143216004
:1034880061461960662188469044624604E001322C
:103498000127904500D163E121683142F7D0002F20
:1034A80000D187E11A608468511C012C0FD0002CD0
:1034B80000D124E1052C00D17EE10127504C266A79
:1034C800BE432662266A0337BE43266203E04C4F9A
:1034D8003E6A34433C624F4C0027A446484C624441
:1034E8000226A446196003E00131012791422CD03D
:1034F8006446246A2642F7D0002F00D019604B4654
:10350800012B00D150E1ED062CD543693C4A012B33
:1035180000D128E105331AD00421536B0B435363C0
:10352800536B03398B435363364B19684C1C1C602F
:103538000224556B2C4215D0556B2C4200D154E116
:10354800526B144200D141E10431196042E7042171
:10355800F824536B8B435363516B8369A143DB009E
:103568000B435363016A002900D1A1E00C23244ACC
:1035780054682340082B2BD0224B1C68651C022959
:103588004CD0116824480140116080211D601068EA
:103598008904084200D18BE0A01C1860106808421A
:1035A80000D185E0E01C186012680A4200D17FE073
:1035B80004341C600EE74B68DB0300D4BEE6104BF6
:1035C8001B689B0300D4DDE64368002B00D0D9E6D6
:1035D800012000E701270A494E6A3E434E621C60FB
:1035E80002244E6A344200D029E74E6A344200D0A1
:1035F80023E7496A0C4200D11CE703321A601EE730
:1036080000100240C4020020FFFFFEFFFFFFFBFF87
:10361800007000408A130000FFFFFFFE1168774E1C
:103628003140802611601768B604A11C374209D0C2
:103638001768E51C374200D1DCE01268211D3242D0
:1036480000D082E70F266E4AD46AB443C66A344370
:10365800D462846A406A566820436A4C34402043E6
:103668005060802014684004204310608020196056
:103678001468800404421BD14C1C1C604E1B022E93
:1036880000D9A7E61668064212D18E1C1E60641B7C
:10369800022C00D99EE61468044209D1CC1C1C6097
:1036A800761B022E00D995E61268024200D14BE73C
:1036B800002090E6C368012B00D199E601208AE634
:1036C80080224F4E520237683A4332604CE64C4FE4
:1036D8004D4E3A6832403A603A684C4E3240802645
:1036E8003A60B602A21C1960673404E01A6001321D
:1036F800A24200D16EE639683142F7D142E601278D
:103708003F4E346ABC433462346A0337BC43346284
:103718003F4C0027A04619609044022204E0013182
:103728000127414500D110E7346A2242F7D1E3E688
:10373800012733490E68BE430E60146002240E68E8
:10374800344200D15CE69E1C16600E68344200D1FB
:1037580056E6DE1C166009680C4200D038E64FE6D3
:1037680042461A6036E60424516B21435163516B7B
:103778000B435363274B19684C1C1C600224556B80
:103788002C4208D1556B2C4232D1526B144200D1D5
:10379800DAE603311960F824194983694A6BDB00BA
:1037A800A24313434B63DDE6154A1B49D3690B401B
:1037B800D361A8E6624676E60427114C266A3E43A2
:1037C8002662266A033F3E43266284E60331196077
:1037D800C8E680260A4AF60217683E431660802625
:1037E800176876023E431660BEE502311960B9E6F5
:1037F8000231CFE72A000D00110023E7FFFFFFFE8B
:1038080000100240FFFFC2FFFFFFFEFFFFFFFBFFAC
:103818008A130000C4020020FFFFFFEFF0B5012368
:10382800D6464F464646584CC0B522681A408A428A
:1038380009D222689A430A432260226813408B42C5
:1038480001D001204AE00468A30706D5F0254F4AB5
:103858005368AB4385682B435360E3072AD54B4E27
:1038680043683268012B6AD0022B44D09207E8D50E
:1038780003257268AA4313437360454B9A46524620
:103888001F687B1C1360002294460C329046414A04
:10389800914606E0012201339446DA1B013A4A4573
:1038A8006ED8454672681542F4D16246002A01D0A6
:1038B800524613600125344A13682B408B4212D8B4
:1038C800640706D5314A344953680B40C1680B4335
:1038D8005360E1220020314BD2031A60E0BCBA46A3
:1038E800B146A846F0BD1368AB43136013681D4288
:1038F800E6D00120F2E79201A3D503257268AA4316
:1039080013437360224B9A4652461F687B1C136010
:10391800002290460C3294461E4A914606E0012247
:1039280001339046DA1B013A4A4529D86546726840
:103938002A40082AF3D14246002AB9D1BAE79203AD
:1039480000D47EE703257268AA4313437360104BC3
:103958009A4652461F687B1C1360114A94460022FF
:1039680090460C326744944604E0012201339046A5
:103978009F4205D0654672682A40042AF5D1DAE7E5
:10398800524603201360A9E70020024000100240BD
:10399800C402002088130000FFF8FFFF0000002089
:1039A8008A130000F0B5DE4657464E464546E0B558
:1039B8000B6889B08B460193002B7ED090220023A0
:1039C800D205904200D1DEE0CD4ACE4E9446012188
:1039D800019A994014000C40A1460A4269D05A46FF
:1039E80052685C0092461700102297430D3AA24095
:1039F800D24303250292524615405A469268A54082
:103A0800A24004950392022F5ED00268029D013FF6
:103A18002A40049D15430560012F00D86FE0C16856
:103A2800029A0A4003990A438021C2605246490516
:103A38000A423ED062460121644692690F250A4334
:103A4800A261A26903240A40AF491C408846A40029
:103A5800A5400792079A9A08920042449168A943A0
:103A6800AA4DA84200D18AE0A94DA84263D0A94D29
:103A7800A84200D13FE10525A5402943916054465D
:103A880049463268C943E4035FD454460A40326069
:103A98007268A40360D454460A407260B268E402B3
:103AA80061D454460A40B260F268A40262D40A4063
:103AB800F260019A0133DA4089D109B0F0BCBB4603
:103AC800B246A946A046F0BDDF08BF00C5190727C2
:103AD8001F40BF00B8462A6A05950F274546AF40E4
:103AE8005D462D69BA432F004546AF40059D3A43D0
:103AF8002A620768029A049D17403D43056085685D
:103B0800029A15405A46D7685246A7403C002C43B3
:103B1800846044688C431109994021434160C1681D
:103B2800029A01330A4003990A43C260019ADA40B3
:103B380000D04CE7C1E70225A540294391605446CF
:103B480049463268C943E4039FD54C46224354464C
:103B580032607268A4039ED54C4622435446726074
:103B6800B268E4029DD54C4622435446B260F268DE
:103B7800A4029CD5494611430A00F26099E7012541
:103B8800A54029437AE70023019C4CE005682E00F4
:103B9800019D2E403500039E2E4306604646013E99
:103BA800012E00D885E0C168019D2940029D294366
:103BB800C160802149050A4230D001260F27504DA7
:103BC800A9693143A961A9694F4D3140A846023618
:103BD8001E40B600B74007910799990889004144EB
:103BE8008D68BD438D6065464649ED430968D60337
:103BF8007ED42940434E31607168960375D42940BC
:103C0800404E7160B168D6026CD429403D4EB16017
:103C1800F168920263D40D403A49CD602200013325
:103C2800DA4000D149E7012199400A002240944630
:103C38002142F3D05A46526810261500B5430D3E6E
:103C48005F001640BE4003965E46A8460325B66848
:103C5800BD40BE40ED43029646460195022E95D1E1
:103C6800DE08B600B4469026F605B046C44466465B
:103C7800366AB24607261E40B600B1460F264D46A4
:103C8800AE40B04656464546AE435D462D69B246FF
:103C98002E004D46AE40B046564645462E43654634
:103CA8002E6205682E00019D2E403500039E2E438E
:103CB80006608668019D12092E40B4465E46F66885
:103CC8009A40BE4067463E43866046688E4332430C
:103CD8004260C26802992A400A43C2609EE765466C
:103CE8000D4399E76646314390E76646314387E7D7
:103CF800664631437EE70325A5402943BEE6C04614
:103D08000010024000040140000001400004004887
:103D180000080048000C0048002A01D08161704763
:103D28008162FCE770B5041E00D190E06923C35C92
:103D3800DAB2002B01D16833C25469232422E25439
:103D48002568233A2B68206993432B60A368296868
:103D580003436069E26903433E48134301400B4350
:103D68002B606B683C49206A0B40E1680B436B6031
:103D7800A369A9680343394801400B43AB60384B3A
:103D8800196B03230B40013B022B25D980231B020F
:103D98009A4244D0E1236168DB0348089C466044AA
:103DA800FCF73AFA0004000CE8606B682D4A6921B8
:103DB800134008226B60AB6800209343AB602B680C
:103DC800073A13432B6000231F32E3666254013124
:103DD80062544832A35470BD2349CB5C8021090248
:103DE8008A4211D0042BD5D007D8002BD2D0022B71
:103DF8002DD161681D4B4808D0E7082B27D18023B7
:103E080061681B024808C9E7042B08D016D8002BA4
:103E180005D0022B19D16168154B480803E0E1234E
:103E280061681B0448089C466044FCF7F5F9114B8F
:103E380003400007400F0343EB60B6E7082B04D1AB
:103E4800802361685B024808EDE70023EB600120EE
:103E5800C1E7C046F369FFFFFFCFFFFFFFF4FFFF95
:103E680000100240FFF7FFFFB04500080024F400EF
:103E78000048E801F0FF0000F0B54546DE46574629
:103E88004E466A24E0B5055D83B0202D54D1002943
:103E980046D0002A44D0802587686D01AF4235D0CE
:103EA8006825465D012E47D0012646550025C56682
:103EB80022350555724C25686E1C2660582682539B
:103EC800023600958253002F4AD05C22865A5A2225
:103ED800825A002A3CD05A1C00D076E080235B012D
:103EE8005A2520249C46435B0268013B9BB24353FE
:103EF800D3691C42FCD0674520D0938C33400B70AB
:103F0800435B0131002B23D08768ECE70569002D5E
:103F18000ED101352E000E40A946B04629423DD0AB
:103F2800012003B0F0BCBB46B246A946A046F0BD8E
:103F38006825465D012E1AD10220F2E70369002B9D
:103F4800DBD1938C33400B80435B0231002BDBD1F8
:103F58006A232022C2540022023BC2540020E0E718
:103F68000269002A16D1FF265C328652AFE7012685
:103F780046550025C56622350555414C25686E1CF9
:103F8800266058268253023682535C22A536009555
:103F980086529CE75C227F26865298E76826855DD4
:103FA800012DC9D04D4685554546C566222505557E
:103FB800334C25686E1C266058268253023682537D
:103FC8005C22304E0095865281E722689446002292
:103FD80001925A3290463A3A9246802252019146CC
:103FE80042464746825A013A92B2C2530268D7699A
:103FF800BB4657465D462F4211D1002B20D02025C5
:1040080001956746009D7F1B0125AB46DC44BB42FA
:1040180019D3D769019D3D42F3D0012501958568E3
:104028004D4525D0928C32400A7001314246825A61
:10403800002AD5D1019B002B8AD06346236087E7ED
:10404800019B002B01D06346236013680E490B4087
:1040580013609368A331FF318B4393602023692257
:1040680083540132835400224833C254032058E752
:104078000569002DD6D1928C32400A800231D5E7ED
:10408800C4020020FF0100005FFEFFFFF0B5DE461E
:1040980057464E4645466924E0B5045D83B0202C5A
:1040A80058D1002945D0002A43D08024866864016D
:1040B800A64239D06824055D012D4BD00125055550
:1040C80000245027C466203569340555584CC2531E
:1040D80025680237AC460135C25301952560C75B98
:1040E8000268002F38D05F1C5ED1802752258024BB
:1040F8007F01435B013B9BB24353D3691C42FCD015
:10410800BE421ED00B7801311385435B002BF0D1E2
:104118004021D3691942FCD069232022C2540022CD
:10412800013BC254002005E00469002CC2D1CC0731
:10413800C0D5012003B0F0BCBB46B246A946A04694
:10414800F0BD0369002BDDD10B880231DB05DB0DE7
:104158001385DAE70220EDE7591CD9D0D569216823
:104168006D06D9D44026002B0BD00D0067460131CF
:104178002160ED1BAB4204D3D5692E42F5D0CBE7C5
:10418800256013682B490B4013609368A331FF31F6
:104198008B4393602023692283540132835468231C
:1041A8000022C2540320C5E70025A9465235A84677
:1041B8002E35AB4680256D01AA4647464546C75B66
:1041C800013FBFB247535D46D7693D4211D1002B2D
:1041D8001ED08025A9466546019F7F1B019D01359C
:1041E8000195BB42CCD34D46D7693D42F3D001255A
:1041F800A946564512D00F78013117854546475BC9
:10420800002FDAD149460029A8D001992160A5E7F5
:104218004B46002BB5D0019B2360B2E70769002FFE
:10422800E9D10F880231FF05FF0D1785E6E7C04683
:10423800C40200205FFEFFFF002103E00B4B5B5828
:10424800435004310A480B4B42189A42F6D30A4AA3
:1042580002E0002313600432084B9A42F9D300E0CD
:1042680000BFFCF7FFF8FEF7D7F8FEE700470008A5
:1042780000000020600000206000002014040020DE
:10428800FEE70000F8B5C046F8BC08BC9E4670477B
:0C429800F8B5C046F8BC08BC9E46704754
:1042A40001020408102040801B36000000030605AC
:1042B4000C0F0A09181B1E1D141712113033363542
:1042C4003C3F3A39282B2E2D242722216063666532
:1042D4006C6F6A69787B7E7D747772715053565522
:1042E4005C5F5A59484B4E4D44474241C0C3C6C512
:1042F400CCCFCAC9D8DBDEDDD4D7D2D1F0F3F6F502
:10430400FCFFFAF9E8EBEEEDE4E7E2E1A0A3A6A5F1
:10431400ACAFAAA9B8BBBEBDB4B7B2B190939695E1
:104324009C9F9A99888B8E8D848782819B989D9E71
:1043340097949192838085868F8C898AABA8ADAE41
:10434400A7A4A1A2B3B0B5B6BFBCB9BAFBF8FDFE31
:10435400F7F4F1F2E3E0E5E6EFECE9EACBC8CDCE21
:10436400C7C4C1C2D3D0D5D6DFDCD9DA5B585D5E11
:1043740057545152434045464F4C494A6B686D6E01
:1043840067646162737075767F7C797A3B383D3EF1
:1043940037343132232025262F2C292A0B080D0EE1
:1043A40007040102131015161F1C191A0002040633
:1043B400080A0C0E10121416181A1C1E2022242689
:1043C400282A2C2E30323436383A3C3E4042444679
:1043D400484A4C4E50525456585A5C5E6062646669
:1043E400686A6C6E70727476787A7C7E8082848659
:1043F400888A8C8E90929496989A9C9EA0A2A4A649
:10440400A8AAACAEB0B2B4B6B8BABCBEC0C2C4C638
:10441400C8CACCCED0D2D4D6D8DADCDEE0E2E4E628
:10442400E8EAECEEF0F2F4F6F8FAFCFE1B191F1DB4
:10443400131117150B090F0D030107053B393F3DF8
:10444400333137352B292F2D232127255B595F5DE8
:10445400535157554B494F4D434147457B797F7DD8
:10446400737177756B696F6D636167659B999F9DC8
:10447400939197958B898F8D83818785BBB9BFBDB8
:10448400B3B1B7B5ABA9AFADA3A1A7A5DBD9DFDDA8
:10449400D3D1D7D5CBC9CFCDC3C1C7C5FBF9FFFD98
:1044A400F3F1F7F5EBE9EFEDE3E1E7E5637C777B27
:1044B400F26B6FC53001672BFED7AB76CA82C97D1C
:1044C400FA5947F0ADD4A2AF9CA472C0B7FD9326AD
:1044D400363FF7CC34A5E5F171D8311504C723C3B1
:1044E4001896059A071280E2EB27B27509832C1AF5
:1044F4001B6E5AA0523BD6B329E32F8453D100ED4F
:1045040020FCB15B6ACBBE394A4C58CFD0EFAAFB32
:10451400434D338545F9027F503C9FA851A3408FFA
:10452400929D38F5BCB6DA2110FFF3D2CD0C13EC12
:104534005F974417C4A77E3D645D197360814FDCA7
:10454400222A908846EEB814DE5E0BDBE0323A0A8B
:104554004906245CC2D3AC629195E479E7C8376D0F
:104564008DD54EA96C56F4EA657AAE08BA78252E34
:104574001CA6B4C6E8DD741F4BBD8B8A703EB566BD
:104584004803F60E613557B986C11D9EE1F89811AE
:1045940069D98E949B1E87E9CE5528DF8CA1890D9D
:1045A400BFE6426841992D0FB054BB1604080200BF
:1045B4003A1B0008401A0008401A0008401A000874
:1045C400401A0008401A0008401A0008401A00085F
:1045D400401A0008401A0008401A00089C1A0008F3
:1045E400541A0008401A0008401A0008401A00082B
:1045F400401A0008541A0008401A0008401A00081B
:10460400401A0008401A0008B61900087C1A00086D
:10461400CE1A0008401A0008401A0008B01A000810
:10462400401A00087C1A0008401A0008401A0008C2
:10463400481B00085245454E54206D616C6C6F63F5
:104644002073756363656564656400002E2E2F2EE8
:104654002E2F2E2E2F2E2E2F2E2E2F2E2E2F6E65FA
:10466400776C69622F6C6962632F7374646C69621E
:104674002F72616E642E63002C2066756E637469FC
:104684006F6E3A2000000000617373657274696F85
:104694006E2022257322206661696C65643A206667
:1046A400696C6520222573222C206C696E65202597
:1046B40064257325730A0000232D302B200000008D
:1046C400686C4C00656667454647000030313233FC
:1046D40034353637383941424344454600000000FA
:1046E4003031323334353637383961626364656664
:0446F40000000000C2
:0446F800FD010008B8
:0446FC00D1010008E0
:1047000000127A000800002000000000CC02002007
:10471000340300209C030020000000000000000083
:104720000000000000000000000000000000000089
:104730000000000000000000000000000000000079
:104740000000000000000000000000000000000069
:10475000000000000000000003000000CC02002068
:04000005080042416C
:00000001FF
